{
  "_format": "hh-sol-artifact-1",
  "contractName": "MembershipNFT",
  "sourceName": "contracts/MembershipNFT.sol",
  "abi": [
    {
      "inputs": [
        {
          "internalType": "string",
          "name": "name",
          "type": "string"
        },
        {
          "internalType": "string",
          "name": "symbol",
          "type": "string"
        }
      ],
      "stateMutability": "nonpayable",
      "type": "constructor"
    },
    {
      "anonymous": false,
      "inputs": [
        {
          "indexed": true,
          "internalType": "address",
          "name": "owner",
          "type": "address"
        },
        {
          "indexed": true,
          "internalType": "address",
          "name": "approved",
          "type": "address"
        },
        {
          "indexed": true,
          "internalType": "uint256",
          "name": "tokenId",
          "type": "uint256"
        }
      ],
      "name": "Approval",
      "type": "event"
    },
    {
      "anonymous": false,
      "inputs": [
        {
          "indexed": true,
          "internalType": "address",
          "name": "owner",
          "type": "address"
        },
        {
          "indexed": true,
          "internalType": "address",
          "name": "operator",
          "type": "address"
        },
        {
          "indexed": false,
          "internalType": "bool",
          "name": "approved",
          "type": "bool"
        }
      ],
      "name": "ApprovalForAll",
      "type": "event"
    },
    {
      "anonymous": false,
      "inputs": [
        {
          "indexed": true,
          "internalType": "address",
          "name": "delegator",
          "type": "address"
        },
        {
          "indexed": true,
          "internalType": "address",
          "name": "fromDelegate",
          "type": "address"
        },
        {
          "indexed": true,
          "internalType": "address",
          "name": "toDelegate",
          "type": "address"
        }
      ],
      "name": "DelegateChanged",
      "type": "event"
    },
    {
      "anonymous": false,
      "inputs": [
        {
          "indexed": true,
          "internalType": "address",
          "name": "delegate",
          "type": "address"
        },
        {
          "indexed": false,
          "internalType": "uint256",
          "name": "previousBalance",
          "type": "uint256"
        },
        {
          "indexed": false,
          "internalType": "uint256",
          "name": "newBalance",
          "type": "uint256"
        }
      ],
      "name": "DelegateVotesChanged",
      "type": "event"
    },
    {
      "anonymous": false,
      "inputs": [
        {
          "indexed": true,
          "internalType": "address",
          "name": "previousOwner",
          "type": "address"
        },
        {
          "indexed": true,
          "internalType": "address",
          "name": "newOwner",
          "type": "address"
        }
      ],
      "name": "OwnershipTransferred",
      "type": "event"
    },
    {
      "anonymous": false,
      "inputs": [
        {
          "indexed": true,
          "internalType": "address",
          "name": "from",
          "type": "address"
        },
        {
          "indexed": true,
          "internalType": "address",
          "name": "to",
          "type": "address"
        },
        {
          "indexed": true,
          "internalType": "uint256",
          "name": "tokenId",
          "type": "uint256"
        }
      ],
      "name": "Transfer",
      "type": "event"
    },
    {
      "inputs": [],
      "name": "DOMAIN_SEPARATOR",
      "outputs": [
        {
          "internalType": "bytes32",
          "name": "",
          "type": "bytes32"
        }
      ],
      "stateMutability": "view",
      "type": "function"
    },
    {
      "inputs": [
        {
          "internalType": "address",
          "name": "to",
          "type": "address"
        },
        {
          "internalType": "uint256",
          "name": "tokenId",
          "type": "uint256"
        }
      ],
      "name": "approve",
      "outputs": [],
      "stateMutability": "nonpayable",
      "type": "function"
    },
    {
      "inputs": [
        {
          "internalType": "address",
          "name": "owner",
          "type": "address"
        }
      ],
      "name": "balanceOf",
      "outputs": [
        {
          "internalType": "uint256",
          "name": "",
          "type": "uint256"
        }
      ],
      "stateMutability": "view",
      "type": "function"
    },
    {
      "inputs": [
        {
          "internalType": "address",
          "name": "delegatee",
          "type": "address"
        }
      ],
      "name": "delegate",
      "outputs": [],
      "stateMutability": "nonpayable",
      "type": "function"
    },
    {
      "inputs": [
        {
          "internalType": "address",
          "name": "delegatee",
          "type": "address"
        },
        {
          "internalType": "uint256",
          "name": "nonce",
          "type": "uint256"
        },
        {
          "internalType": "uint256",
          "name": "expiry",
          "type": "uint256"
        },
        {
          "internalType": "uint8",
          "name": "v",
          "type": "uint8"
        },
        {
          "internalType": "bytes32",
          "name": "r",
          "type": "bytes32"
        },
        {
          "internalType": "bytes32",
          "name": "s",
          "type": "bytes32"
        }
      ],
      "name": "delegateBySig",
      "outputs": [],
      "stateMutability": "nonpayable",
      "type": "function"
    },
    {
      "inputs": [
        {
          "internalType": "address",
          "name": "account",
          "type": "address"
        }
      ],
      "name": "delegates",
      "outputs": [
        {
          "internalType": "address",
          "name": "",
          "type": "address"
        }
      ],
      "stateMutability": "view",
      "type": "function"
    },
    {
      "inputs": [
        {
          "internalType": "uint256",
          "name": "tokenId",
          "type": "uint256"
        }
      ],
      "name": "getApproved",
      "outputs": [
        {
          "internalType": "address",
          "name": "",
          "type": "address"
        }
      ],
      "stateMutability": "view",
      "type": "function"
    },
    {
      "inputs": [
        {
          "internalType": "uint256",
          "name": "blockNumber",
          "type": "uint256"
        }
      ],
      "name": "getPastTotalSupply",
      "outputs": [
        {
          "internalType": "uint256",
          "name": "",
          "type": "uint256"
        }
      ],
      "stateMutability": "view",
      "type": "function"
    },
    {
      "inputs": [
        {
          "internalType": "address",
          "name": "account",
          "type": "address"
        },
        {
          "internalType": "uint256",
          "name": "blockNumber",
          "type": "uint256"
        }
      ],
      "name": "getPastVotes",
      "outputs": [
        {
          "internalType": "uint256",
          "name": "",
          "type": "uint256"
        }
      ],
      "stateMutability": "view",
      "type": "function"
    },
    {
      "inputs": [
        {
          "internalType": "address",
          "name": "account",
          "type": "address"
        }
      ],
      "name": "getVotes",
      "outputs": [
        {
          "internalType": "uint256",
          "name": "",
          "type": "uint256"
        }
      ],
      "stateMutability": "view",
      "type": "function"
    },
    {
      "inputs": [
        {
          "internalType": "address",
          "name": "owner",
          "type": "address"
        },
        {
          "internalType": "address",
          "name": "operator",
          "type": "address"
        }
      ],
      "name": "isApprovedForAll",
      "outputs": [
        {
          "internalType": "bool",
          "name": "",
          "type": "bool"
        }
      ],
      "stateMutability": "view",
      "type": "function"
    },
    {
      "inputs": [],
      "name": "name",
      "outputs": [
        {
          "internalType": "string",
          "name": "",
          "type": "string"
        }
      ],
      "stateMutability": "view",
      "type": "function"
    },
    {
      "inputs": [
        {
          "internalType": "address",
          "name": "owner",
          "type": "address"
        }
      ],
      "name": "nonces",
      "outputs": [
        {
          "internalType": "uint256",
          "name": "",
          "type": "uint256"
        }
      ],
      "stateMutability": "view",
      "type": "function"
    },
    {
      "inputs": [],
      "name": "owner",
      "outputs": [
        {
          "internalType": "address",
          "name": "",
          "type": "address"
        }
      ],
      "stateMutability": "view",
      "type": "function"
    },
    {
      "inputs": [
        {
          "internalType": "uint256",
          "name": "tokenId",
          "type": "uint256"
        }
      ],
      "name": "ownerOf",
      "outputs": [
        {
          "internalType": "address",
          "name": "",
          "type": "address"
        }
      ],
      "stateMutability": "view",
      "type": "function"
    },
    {
      "inputs": [],
      "name": "renounceOwnership",
      "outputs": [],
      "stateMutability": "nonpayable",
      "type": "function"
    },
    {
      "inputs": [
        {
          "internalType": "address",
          "name": "to",
          "type": "address"
        }
      ],
      "name": "safeMint",
      "outputs": [],
      "stateMutability": "nonpayable",
      "type": "function"
    },
    {
      "inputs": [
        {
          "internalType": "address",
          "name": "from",
          "type": "address"
        },
        {
          "internalType": "address",
          "name": "to",
          "type": "address"
        },
        {
          "internalType": "uint256",
          "name": "tokenId",
          "type": "uint256"
        }
      ],
      "name": "safeTransferFrom",
      "outputs": [],
      "stateMutability": "nonpayable",
      "type": "function"
    },
    {
      "inputs": [
        {
          "internalType": "address",
          "name": "from",
          "type": "address"
        },
        {
          "internalType": "address",
          "name": "to",
          "type": "address"
        },
        {
          "internalType": "uint256",
          "name": "tokenId",
          "type": "uint256"
        },
        {
          "internalType": "bytes",
          "name": "data",
          "type": "bytes"
        }
      ],
      "name": "safeTransferFrom",
      "outputs": [],
      "stateMutability": "nonpayable",
      "type": "function"
    },
    {
      "inputs": [
        {
          "internalType": "address",
          "name": "operator",
          "type": "address"
        },
        {
          "internalType": "bool",
          "name": "approved",
          "type": "bool"
        }
      ],
      "name": "setApprovalForAll",
      "outputs": [],
      "stateMutability": "nonpayable",
      "type": "function"
    },
    {
      "inputs": [
        {
          "internalType": "bytes4",
          "name": "interfaceId",
          "type": "bytes4"
        }
      ],
      "name": "supportsInterface",
      "outputs": [
        {
          "internalType": "bool",
          "name": "",
          "type": "bool"
        }
      ],
      "stateMutability": "view",
      "type": "function"
    },
    {
      "inputs": [],
      "name": "symbol",
      "outputs": [
        {
          "internalType": "string",
          "name": "",
          "type": "string"
        }
      ],
      "stateMutability": "view",
      "type": "function"
    },
    {
      "inputs": [
        {
          "internalType": "uint256",
          "name": "tokenId",
          "type": "uint256"
        }
      ],
      "name": "tokenURI",
      "outputs": [
        {
          "internalType": "string",
          "name": "",
          "type": "string"
        }
      ],
      "stateMutability": "view",
      "type": "function"
    },
    {
      "inputs": [
        {
          "internalType": "address",
          "name": "from",
          "type": "address"
        },
        {
          "internalType": "address",
          "name": "to",
          "type": "address"
        },
        {
          "internalType": "uint256",
          "name": "tokenId",
          "type": "uint256"
        }
      ],
      "name": "transferFrom",
      "outputs": [],
      "stateMutability": "nonpayable",
      "type": "function"
    },
    {
      "inputs": [
        {
          "internalType": "address",
          "name": "newOwner",
          "type": "address"
        }
      ],
      "name": "transferOwnership",
      "outputs": [],
      "stateMutability": "nonpayable",
      "type": "function"
    }
  ],
  "bytecode": "0x6101406040523480156200001257600080fd5b5060405162004c2938038062004c298339818101604052810190620000389190620003ae565b816040518060400160405280600181526020017f310000000000000000000000000000000000000000000000000000000000000081525083838160009080519060200190620000899291906200028c565b508060019080519060200190620000a29291906200028c565b505050620000c5620000b96200018260201b60201c565b6200018a60201b60201c565b60008280519060200120905060008280519060200120905060007f8b73c3c69bb8fe3d512ecc4cf759cc79239f7b179b0ffacaa9a75d522b39400f90508260e081815250508161010081815250504660a081815250506200012e8184846200025060201b60201c565b608081815250503073ffffffffffffffffffffffffffffffffffffffff1660c08173ffffffffffffffffffffffffffffffffffffffff1660601b815250508061012081815250505050505050505062000669565b600033905090565b6000600660009054906101000a900473ffffffffffffffffffffffffffffffffffffffff16905081600660006101000a81548173ffffffffffffffffffffffffffffffffffffffff021916908373ffffffffffffffffffffffffffffffffffffffff1602179055508173ffffffffffffffffffffffffffffffffffffffff168173ffffffffffffffffffffffffffffffffffffffff167f8be0079c531659141344cd1fd0a4f28419497f9722a3daafe3b4186f6b6457e060405160405180910390a35050565b600083838346306040516020016200026d95949392919062000454565b6040516020818303038152906040528051906020012090509392505050565b8280546200029a906200058e565b90600052602060002090601f016020900481019282620002be57600085556200030a565b82601f10620002d957805160ff19168380011785556200030a565b828001600101855582156200030a579182015b8281111562000309578251825591602001919060010190620002ec565b5b5090506200031991906200031d565b5090565b5b80821115620003385760008160009055506001016200031e565b5090565b6000620003536200034d84620004da565b620004b1565b9050828152602081018484840111156200036c57600080fd5b6200037984828562000558565b509392505050565b600082601f8301126200039357600080fd5b8151620003a58482602086016200033c565b91505092915050565b60008060408385031215620003c257600080fd5b600083015167ffffffffffffffff811115620003dd57600080fd5b620003eb8582860162000381565b925050602083015167ffffffffffffffff8111156200040957600080fd5b620004178582860162000381565b9150509250929050565b6200042c8162000510565b82525050565b6200043d8162000524565b82525050565b6200044e816200054e565b82525050565b600060a0820190506200046b600083018862000432565b6200047a602083018762000432565b62000489604083018662000432565b62000498606083018562000443565b620004a7608083018462000421565b9695505050505050565b6000620004bd620004d0565b9050620004cb8282620005c4565b919050565b6000604051905090565b600067ffffffffffffffff821115620004f857620004f762000629565b5b620005038262000658565b9050602081019050919050565b60006200051d826200052e565b9050919050565b6000819050919050565b600073ffffffffffffffffffffffffffffffffffffffff82169050919050565b6000819050919050565b60005b83811015620005785780820151818401526020810190506200055b565b8381111562000588576000848401525b50505050565b60006002820490506001821680620005a757607f821691505b60208210811415620005be57620005bd620005fa565b5b50919050565b620005cf8262000658565b810181811067ffffffffffffffff82111715620005f157620005f062000629565b5b80604052505050565b7f4e487b7100000000000000000000000000000000000000000000000000000000600052602260045260246000fd5b7f4e487b7100000000000000000000000000000000000000000000000000000000600052604160045260246000fd5b6000601f19601f8301169050919050565b60805160a05160c05160601c60e051610100516101205161456d620006bc60003960006114c80152600061150a015260006114e90152600061141e015260006114740152600061149d015261456d6000f3fe608060405234801561001057600080fd5b50600436106101735760003560e01c806370a08231116100de5780639ab24eb011610097578063c3cda52011610071578063c3cda5201461046e578063c87b56dd1461048a578063e985e9c5146104ba578063f2fde38b146104ea57610173565b80639ab24eb014610406578063a22cb46514610436578063b88d4fde1461045257610173565b806370a0823114610330578063715018a6146103605780637ecebe001461036a5780638da5cb5b1461039a5780638e539e8c146103b857806395d89b41146103e857610173565b80633a46b1a8116101305780633a46b1a81461024c57806340d097c31461027c57806342842e0e14610298578063587cde1e146102b45780635c19a95c146102e45780636352211e1461030057610173565b806301ffc9a71461017857806306fdde03146101a8578063081812fc146101c6578063095ea7b3146101f657806323b872dd146102125780633644e5151461022e575b600080fd5b610192600480360381019061018d9190613155565b610506565b60405161019f91906136df565b60405180910390f35b6101b06105e8565b6040516101bd91906137f2565b60405180910390f35b6101e060048036038101906101db91906131a7565b61067a565b6040516101ed9190613678565b60405180910390f35b610210600480360381019061020b9190613090565b6106c0565b005b61022c60048036038101906102279190612f8a565b6107d8565b005b610236610838565b60405161024391906136fa565b60405180910390f35b61026660048036038101906102619190613090565b610847565b6040516102739190613af4565b60405180910390f35b61029660048036038101906102919190612f25565b6108a2565b005b6102b260048036038101906102ad9190612f8a565b6108d0565b005b6102ce60048036038101906102c99190612f25565b6108f0565b6040516102db9190613678565b60405180910390f35b6102fe60048036038101906102f99190612f25565b610959565b005b61031a600480360381019061031591906131a7565b610973565b6040516103279190613678565b60405180910390f35b61034a60048036038101906103459190612f25565b610a25565b6040516103579190613af4565b60405180910390f35b610368610add565b005b610384600480360381019061037f9190612f25565b610af1565b6040516103919190613af4565b60405180910390f35b6103a2610b41565b6040516103af9190613678565b60405180910390f35b6103d260048036038101906103cd91906131a7565b610b6b565b6040516103df9190613af4565b60405180910390f35b6103f0610bca565b6040516103fd91906137f2565b60405180910390f35b610420600480360381019061041b9190612f25565b610c5c565b60405161042d9190613af4565b60405180910390f35b610450600480360381019061044b9190613054565b610cac565b005b61046c60048036038101906104679190612fd9565b610cc2565b005b610488600480360381019061048391906130cc565b610d24565b005b6104a4600480360381019061049f91906131a7565b610e28565b6040516104b191906137f2565b60405180910390f35b6104d460048036038101906104cf9190612f4e565b610e90565b6040516104e191906136df565b60405180910390f35b61050460048036038101906104ff9190612f25565b610f24565b005b60007f80ac58cd000000000000000000000000000000000000000000000000000000007bffffffffffffffffffffffffffffffffffffffffffffffffffffffff1916827bffffffffffffffffffffffffffffffffffffffffffffffffffffffff191614806105d157507f5b5e139f000000000000000000000000000000000000000000000000000000007bffffffffffffffffffffffffffffffffffffffffffffffffffffffff1916827bffffffffffffffffffffffffffffffffffffffffffffffffffffffff1916145b806105e157506105e082610fa8565b5b9050919050565b6060600080546105f790613d59565b80601f016020809104026020016040519081016040528092919081815260200182805461062390613d59565b80156106705780601f1061064557610100808354040283529160200191610670565b820191906000526020600020905b81548152906001019060200180831161065357829003601f168201915b5050505050905090565b600061068582611012565b6004600083815260200190815260200160002060009054906101000a900473ffffffffffffffffffffffffffffffffffffffff169050919050565b60006106cb82610973565b90508073ffffffffffffffffffffffffffffffffffffffff168373ffffffffffffffffffffffffffffffffffffffff16141561073c576040517f08c379a000000000000000000000000000000000000000000000000000000000815260040161073390613a94565b60405180910390fd5b8073ffffffffffffffffffffffffffffffffffffffff1661075b61105d565b73ffffffffffffffffffffffffffffffffffffffff16148061078a57506107898161078461105d565b610e90565b5b6107c9576040517f08c379a00000000000000000000000000000000000000000000000000000000081526004016107c0906139f4565b60405180910390fd5b6107d38383611065565b505050565b6107e96107e361105d565b8261111e565b610828576040517f08c379a000000000000000000000000000000000000000000000000000000000815260040161081f90613ad4565b60405180910390fd5b6108338383836111b3565b505050565b600061084261141a565b905090565b600061089a82600860008673ffffffffffffffffffffffffffffffffffffffff1673ffffffffffffffffffffffffffffffffffffffff16815260200190815260200160002061153490919063ffffffff16565b905092915050565b6108aa6116d8565b60006108b6600b611756565b90506108c2600b611764565b6108cc828261177a565b5050565b6108eb83838360405180602001604052806000815250610cc2565b505050565b6000600760008373ffffffffffffffffffffffffffffffffffffffff1673ffffffffffffffffffffffffffffffffffffffff16815260200190815260200160002060009054906101000a900473ffffffffffffffffffffffffffffffffffffffff169050919050565b600061096361105d565b905061096f8183611798565b5050565b6000806002600084815260200190815260200160002060009054906101000a900473ffffffffffffffffffffffffffffffffffffffff169050600073ffffffffffffffffffffffffffffffffffffffff168173ffffffffffffffffffffffffffffffffffffffff161415610a1c576040517f08c379a0000000000000000000000000000000000000000000000000000000008152600401610a1390613a74565b60405180910390fd5b80915050919050565b60008073ffffffffffffffffffffffffffffffffffffffff168273ffffffffffffffffffffffffffffffffffffffff161415610a96576040517f08c379a0000000000000000000000000000000000000000000000000000000008152600401610a8d90613974565b60405180910390fd5b600360008373ffffffffffffffffffffffffffffffffffffffff1673ffffffffffffffffffffffffffffffffffffffff168152602001908152602001600020549050919050565b610ae56116d8565b610aef60006118ac565b565b6000610b3a600a60008473ffffffffffffffffffffffffffffffffffffffff1673ffffffffffffffffffffffffffffffffffffffff168152602001908152602001600020611756565b9050919050565b6000600660009054906101000a900473ffffffffffffffffffffffffffffffffffffffff16905090565b6000438210610baf576040517f08c379a0000000000000000000000000000000000000000000000000000000008152600401610ba6906139b4565b60405180910390fd5b610bc382600961153490919063ffffffff16565b9050919050565b606060018054610bd990613d59565b80601f0160208091040260200160405190810160405280929190818152602001828054610c0590613d59565b8015610c525780601f10610c2757610100808354040283529160200191610c52565b820191906000526020600020905b815481529060010190602001808311610c3557829003601f168201915b5050505050905090565b6000610ca5600860008473ffffffffffffffffffffffffffffffffffffffff1673ffffffffffffffffffffffffffffffffffffffff168152602001908152602001600020611972565b9050919050565b610cbe610cb761105d565b8383611a33565b5050565b610cd3610ccd61105d565b8361111e565b610d12576040517f08c379a0000000000000000000000000000000000000000000000000000000008152600401610d0990613ad4565b60405180910390fd5b610d1e84848484611ba0565b50505050565b83421115610d67576040517f08c379a0000000000000000000000000000000000000000000000000000000008152600401610d5e90613994565b60405180910390fd5b6000610dc9610dc17fe48329057bfd03d55e49b547132e39cffd9c1820ad7b9d4c5307691425d15adf898989604051602001610da69493929190613715565b60405160208183030381529060405280519060200120611bfc565b858585611c16565b9050610dd481611c41565b8614610e15576040517f08c379a0000000000000000000000000000000000000000000000000000000008152600401610e0c90613834565b60405180910390fd5b610e1f8188611798565b50505050505050565b6060610e3382611012565b6000610e3d611c9f565b90506000815111610e5d5760405180602001604052806000815250610e88565b80610e6784611cb6565b604051602001610e7892919061361d565b6040516020818303038152906040525b915050919050565b6000600560008473ffffffffffffffffffffffffffffffffffffffff1673ffffffffffffffffffffffffffffffffffffffff16815260200190815260200160002060008373ffffffffffffffffffffffffffffffffffffffff1673ffffffffffffffffffffffffffffffffffffffff16815260200190815260200160002060009054906101000a900460ff16905092915050565b610f2c6116d8565b600073ffffffffffffffffffffffffffffffffffffffff168173ffffffffffffffffffffffffffffffffffffffff161415610f9c576040517f08c379a0000000000000000000000000000000000000000000000000000000008152600401610f9390613894565b60405180910390fd5b610fa5816118ac565b50565b60007f01ffc9a7000000000000000000000000000000000000000000000000000000007bffffffffffffffffffffffffffffffffffffffffffffffffffffffff1916827bffffffffffffffffffffffffffffffffffffffffffffffffffffffff1916149050919050565b61101b81611e63565b61105a576040517f08c379a000000000000000000000000000000000000000000000000000000000815260040161105190613a74565b60405180910390fd5b50565b600033905090565b816004600083815260200190815260200160002060006101000a81548173ffffffffffffffffffffffffffffffffffffffff021916908373ffffffffffffffffffffffffffffffffffffffff160217905550808273ffffffffffffffffffffffffffffffffffffffff166110d883610973565b73ffffffffffffffffffffffffffffffffffffffff167f8c5be1e5ebec7d5bd14f71427d1e84f3dd0314c0f7b2291e5b200ac8c7c3b92560405160405180910390a45050565b60008061112a83610973565b90508073ffffffffffffffffffffffffffffffffffffffff168473ffffffffffffffffffffffffffffffffffffffff16148061116c575061116b8185610e90565b5b806111aa57508373ffffffffffffffffffffffffffffffffffffffff166111928461067a565b73ffffffffffffffffffffffffffffffffffffffff16145b91505092915050565b8273ffffffffffffffffffffffffffffffffffffffff166111d382610973565b73ffffffffffffffffffffffffffffffffffffffff1614611229576040517f08c379a0000000000000000000000000000000000000000000000000000000008152600401611220906138b4565b60405180910390fd5b600073ffffffffffffffffffffffffffffffffffffffff168273ffffffffffffffffffffffffffffffffffffffff161415611299576040517f08c379a0000000000000000000000000000000000000000000000000000000008152600401611290906138f4565b60405180910390fd5b6112a4838383611ecf565b6112af600082611065565b6001600360008573ffffffffffffffffffffffffffffffffffffffff1673ffffffffffffffffffffffffffffffffffffffff16815260200190815260200160002060008282546112ff9190613c58565b925050819055506001600360008473ffffffffffffffffffffffffffffffffffffffff1673ffffffffffffffffffffffffffffffffffffffff16815260200190815260200160002060008282546113569190613bd1565b92505081905550816002600083815260200190815260200160002060006101000a81548173ffffffffffffffffffffffffffffffffffffffff021916908373ffffffffffffffffffffffffffffffffffffffff160217905550808273ffffffffffffffffffffffffffffffffffffffff168473ffffffffffffffffffffffffffffffffffffffff167fddf252ad1be2c89b69c2b068fc378daa952ba7f163c4a11628f55a4df523b3ef60405160405180910390a4611415838383611ed4565b505050565b60007f000000000000000000000000000000000000000000000000000000000000000073ffffffffffffffffffffffffffffffffffffffff163073ffffffffffffffffffffffffffffffffffffffff1614801561149657507f000000000000000000000000000000000000000000000000000000000000000046145b156114c3577f00000000000000000000000000000000000000000000000000000000000000009050611531565b61152e7f00000000000000000000000000000000000000000000000000000000000000007f00000000000000000000000000000000000000000000000000000000000000007f0000000000000000000000000000000000000000000000000000000000000000611ee4565b90505b90565b6000438210611578576040517f08c379a000000000000000000000000000000000000000000000000000000000815260040161156f90613954565b60405180910390fd5b60008360000180549050905060005b8181101561162257600061159b8284611f1e565b9050848660000182815481106115da577f4e487b7100000000000000000000000000000000000000000000000000000000600052603260045260246000fd5b9060005260206000200160000160009054906101000a900463ffffffff1663ffffffff16111561160c5780925061161c565b6001816116199190613bd1565b91505b50611587565b600082146116ad578460000160018361163b9190613c58565b81548110611672577f4e487b7100000000000000000000000000000000000000000000000000000000600052603260045260246000fd5b9060005260206000200160000160049054906101000a90047bffffffffffffffffffffffffffffffffffffffffffffffffffffffff166116b0565b60005b7bffffffffffffffffffffffffffffffffffffffffffffffffffffffff169250505092915050565b6116e061105d565b73ffffffffffffffffffffffffffffffffffffffff166116fe610b41565b73ffffffffffffffffffffffffffffffffffffffff1614611754576040517f08c379a000000000000000000000000000000000000000000000000000000000815260040161174b90613a34565b60405180910390fd5b565b600081600001549050919050565b6001816000016000828254019250508190555050565b611794828260405180602001604052806000815250611f44565b5050565b60006117a3836108f0565b905081600760008573ffffffffffffffffffffffffffffffffffffffff1673ffffffffffffffffffffffffffffffffffffffff16815260200190815260200160002060006101000a81548173ffffffffffffffffffffffffffffffffffffffff021916908373ffffffffffffffffffffffffffffffffffffffff1602179055508173ffffffffffffffffffffffffffffffffffffffff168173ffffffffffffffffffffffffffffffffffffffff168473ffffffffffffffffffffffffffffffffffffffff167f3134e8a2e6d97e929a7e54011ea5485d7d196dd5f0ba4d4ef95803e8e3fc257f60405160405180910390a46118a781836118a286611f9f565b611fb1565b505050565b6000600660009054906101000a900473ffffffffffffffffffffffffffffffffffffffff16905081600660006101000a81548173ffffffffffffffffffffffffffffffffffffffff021916908373ffffffffffffffffffffffffffffffffffffffff1602179055508173ffffffffffffffffffffffffffffffffffffffff168173ffffffffffffffffffffffffffffffffffffffff167f8be0079c531659141344cd1fd0a4f28419497f9722a3daafe3b4186f6b6457e060405160405180910390a35050565b6000808260000180549050905060008114611a0a57826000016001826119989190613c58565b815481106119cf577f4e487b7100000000000000000000000000000000000000000000000000000000600052603260045260246000fd5b9060005260206000200160000160049054906101000a90047bffffffffffffffffffffffffffffffffffffffffffffffffffffffff16611a0d565b60005b7bffffffffffffffffffffffffffffffffffffffffffffffffffffffff16915050919050565b8173ffffffffffffffffffffffffffffffffffffffff168373ffffffffffffffffffffffffffffffffffffffff161415611aa2576040517f08c379a0000000000000000000000000000000000000000000000000000000008152600401611a9990613914565b60405180910390fd5b80600560008573ffffffffffffffffffffffffffffffffffffffff1673ffffffffffffffffffffffffffffffffffffffff16815260200190815260200160002060008473ffffffffffffffffffffffffffffffffffffffff1673ffffffffffffffffffffffffffffffffffffffff16815260200190815260200160002060006101000a81548160ff0219169083151502179055508173ffffffffffffffffffffffffffffffffffffffff168373ffffffffffffffffffffffffffffffffffffffff167f17307eab39ab6107e8899845ad3d59bd9653f200f220920489ca2b5937696c3183604051611b9391906136df565b60405180910390a3505050565b611bab8484846111b3565b611bb7848484846121be565b611bf6576040517f08c379a0000000000000000000000000000000000000000000000000000000008152600401611bed90613874565b60405180910390fd5b50505050565b6000611c0f611c0961141a565b83612355565b9050919050565b6000806000611c2787878787612388565b91509150611c3481612495565b8192505050949350505050565b600080600a60008473ffffffffffffffffffffffffffffffffffffffff1673ffffffffffffffffffffffffffffffffffffffff1681526020019081526020016000209050611c8e81611756565b9150611c9981611764565b50919050565b606060405180602001604052806000815250905090565b60606000821415611cfe576040518060400160405280600181526020017f30000000000000000000000000000000000000000000000000000000000000008152509050611e5e565b600082905060005b60008214611d30578080611d1990613dbc565b915050600a82611d299190613c27565b9150611d06565b60008167ffffffffffffffff811115611d72577f4e487b7100000000000000000000000000000000000000000000000000000000600052604160045260246000fd5b6040519080825280601f01601f191660200182016040528015611da45781602001600182028036833780820191505090505b5090505b60008514611e5757600182611dbd9190613c58565b9150600a85611dcc9190613e0f565b6030611dd89190613bd1565b60f81b818381518110611e14577f4e487b7100000000000000000000000000000000000000000000000000000000600052603260045260246000fd5b60200101907effffffffffffffffffffffffffffffffffffffffffffffffffffffffffffff1916908160001a905350600a85611e509190613c27565b9450611da8565b8093505050505b919050565b60008073ffffffffffffffffffffffffffffffffffffffff166002600084815260200190815260200160002060009054906101000a900473ffffffffffffffffffffffffffffffffffffffff1673ffffffffffffffffffffffffffffffffffffffff1614159050919050565b505050565b611edf8383836127e6565b505050565b60008383834630604051602001611eff95949392919061375a565b6040516020818303038152906040528051906020012090509392505050565b60006002828418611f2f9190613c27565b828416611f3c9190613bd1565b905092915050565b611f4e8383612802565b611f5b60008484846121be565b611f9a576040517f08c379a0000000000000000000000000000000000000000000000000000000008152600401611f9190613874565b60405180910390fd5b505050565b6000611faa82610a25565b9050919050565b8173ffffffffffffffffffffffffffffffffffffffff168373ffffffffffffffffffffffffffffffffffffffff1614158015611fed5750600081115b156121b957600073ffffffffffffffffffffffffffffffffffffffff168373ffffffffffffffffffffffffffffffffffffffff16146120d55760008061207e6129dc84600860008973ffffffffffffffffffffffffffffffffffffffff1673ffffffffffffffffffffffffffffffffffffffff1681526020019081526020016000206129f29092919063ffffffff16565b915091508473ffffffffffffffffffffffffffffffffffffffff167fdec2bacdd2f05b59de34da9b523dff8be42e5e38e818c82fdb0bae774387a72483836040516120ca929190613b0f565b60405180910390a250505b600073ffffffffffffffffffffffffffffffffffffffff168273ffffffffffffffffffffffffffffffffffffffff16146121b857600080612161612a2084600860008873ffffffffffffffffffffffffffffffffffffffff1673ffffffffffffffffffffffffffffffffffffffff1681526020019081526020016000206129f29092919063ffffffff16565b915091508373ffffffffffffffffffffffffffffffffffffffff167fdec2bacdd2f05b59de34da9b523dff8be42e5e38e818c82fdb0bae774387a72483836040516121ad929190613b0f565b60405180910390a250505b5b505050565b60006121df8473ffffffffffffffffffffffffffffffffffffffff16612a36565b15612348578373ffffffffffffffffffffffffffffffffffffffff1663150b7a0261220861105d565b8786866040518563ffffffff1660e01b815260040161222a9493929190613693565b602060405180830381600087803b15801561224457600080fd5b505af192505050801561227557506040513d601f19601f82011682018060405250810190612272919061317e565b60015b6122f8573d80600081146122a5576040519150601f19603f3d011682016040523d82523d6000602084013e6122aa565b606091505b506000815114156122f0576040517f08c379a00000000000000000000000000000000000000000000000000000000081526004016122e790613874565b60405180910390fd5b805181602001fd5b63150b7a0260e01b7bffffffffffffffffffffffffffffffffffffffffffffffffffffffff1916817bffffffffffffffffffffffffffffffffffffffffffffffffffffffff19161491505061234d565b600190505b949350505050565b6000828260405160200161236a929190613641565b60405160208183030381529060405280519060200120905092915050565b6000807f7fffffffffffffffffffffffffffffff5d576e7357a4501ddfe92f46681b20a08360001c11156123c357600060039150915061248c565b601b8560ff16141580156123db5750601c8560ff1614155b156123ed57600060049150915061248c565b60006001878787876040516000815260200160405260405161241294939291906137ad565b6020604051602081039080840390855afa158015612434573d6000803e3d6000fd5b505050602060405103519050600073ffffffffffffffffffffffffffffffffffffffff168173ffffffffffffffffffffffffffffffffffffffff1614156124835760006001925092505061248c565b80600092509250505b94509492505050565b600060048111156124cf577f4e487b7100000000000000000000000000000000000000000000000000000000600052602160045260246000fd5b816004811115612508577f4e487b7100000000000000000000000000000000000000000000000000000000600052602160045260246000fd5b1415612513576127e3565b6001600481111561254d577f4e487b7100000000000000000000000000000000000000000000000000000000600052602160045260246000fd5b816004811115612586577f4e487b7100000000000000000000000000000000000000000000000000000000600052602160045260246000fd5b14156125c7576040517f08c379a00000000000000000000000000000000000000000000000000000000081526004016125be90613814565b60405180910390fd5b60026004811115612601577f4e487b7100000000000000000000000000000000000000000000000000000000600052602160045260246000fd5b81600481111561263a577f4e487b7100000000000000000000000000000000000000000000000000000000600052602160045260246000fd5b141561267b576040517f08c379a000000000000000000000000000000000000000000000000000000000815260040161267290613854565b60405180910390fd5b600360048111156126b5577f4e487b7100000000000000000000000000000000000000000000000000000000600052602160045260246000fd5b8160048111156126ee577f4e487b7100000000000000000000000000000000000000000000000000000000600052602160045260246000fd5b141561272f576040517f08c379a000000000000000000000000000000000000000000000000000000000815260040161272690613934565b60405180910390fd5b600480811115612768577f4e487b7100000000000000000000000000000000000000000000000000000000600052602160045260246000fd5b8160048111156127a1577f4e487b7100000000000000000000000000000000000000000000000000000000600052602160045260246000fd5b14156127e2576040517f08c379a00000000000000000000000000000000000000000000000000000000081526004016127d9906139d4565b60405180910390fd5b5b50565b6127f283836001612a59565b6127fd838383612b19565b505050565b600073ffffffffffffffffffffffffffffffffffffffff168273ffffffffffffffffffffffffffffffffffffffff161415612872576040517f08c379a000000000000000000000000000000000000000000000000000000000815260040161286990613a14565b60405180910390fd5b61287b81611e63565b156128bb576040517f08c379a00000000000000000000000000000000000000000000000000000000081526004016128b2906138d4565b60405180910390fd5b6128c760008383611ecf565b6001600360008473ffffffffffffffffffffffffffffffffffffffff1673ffffffffffffffffffffffffffffffffffffffff16815260200190815260200160002060008282546129179190613bd1565b92505081905550816002600083815260200190815260200160002060006101000a81548173ffffffffffffffffffffffffffffffffffffffff021916908373ffffffffffffffffffffffffffffffffffffffff160217905550808273ffffffffffffffffffffffffffffffffffffffff16600073ffffffffffffffffffffffffffffffffffffffff167fddf252ad1be2c89b69c2b068fc378daa952ba7f163c4a11628f55a4df523b3ef60405160405180910390a46129d860008383611ed4565b5050565b600081836129ea9190613c58565b905092915050565b600080612a1485612a0f612a0588611972565b868863ffffffff16565b612b1e565b91509150935093915050565b60008183612a2e9190613bd1565b905092915050565b6000808273ffffffffffffffffffffffffffffffffffffffff163b119050919050565b600073ffffffffffffffffffffffffffffffffffffffff168373ffffffffffffffffffffffffffffffffffffffff161415612aa957612aa6612a208260096129f29092919063ffffffff16565b50505b600073ffffffffffffffffffffffffffffffffffffffff168273ffffffffffffffffffffffffffffffffffffffff161415612af957612af66129dc8260096129f29092919063ffffffff16565b50505b612b14612b05846108f0565b612b0e846108f0565b83611fb1565b505050565b505050565b6000806000846000018054905090506000612b3886611972565b9050600082118015612bb457504386600001600184612b579190613c58565b81548110612b8e577f4e487b7100000000000000000000000000000000000000000000000000000000600052603260045260246000fd5b9060005260206000200160000160009054906101000a900463ffffffff1663ffffffff16145b15612c6a57612bc285612d6c565b86600001600184612bd39190613c58565b81548110612c0a577f4e487b7100000000000000000000000000000000000000000000000000000000600052603260045260246000fd5b9060005260206000200160000160046101000a8154817bffffffffffffffffffffffffffffffffffffffffffffffffffffffff02191690837bffffffffffffffffffffffffffffffffffffffffffffffffffffffff160217905550612d5d565b856000016040518060400160405280612c8243612dd7565b63ffffffff168152602001612c9688612d6c565b7bffffffffffffffffffffffffffffffffffffffffffffffffffffffff168152509080600181540180825580915050600190039060005260206000200160009091909190915060008201518160000160006101000a81548163ffffffff021916908363ffffffff16021790555060208201518160000160046101000a8154817bffffffffffffffffffffffffffffffffffffffffffffffffffffffff02191690837bffffffffffffffffffffffffffffffffffffffffffffffffffffffff16021790555050505b80859350935050509250929050565b60007bffffffffffffffffffffffffffffffffffffffffffffffffffffffff8016821115612dcf576040517f08c379a0000000000000000000000000000000000000000000000000000000008152600401612dc690613a54565b60405180910390fd5b819050919050565b600063ffffffff8016821115612e22576040517f08c379a0000000000000000000000000000000000000000000000000000000008152600401612e1990613ab4565b60405180910390fd5b819050919050565b6000612e3d612e3884613b5d565b613b38565b905082815260208101848484011115612e5557600080fd5b612e60848285613d17565b509392505050565b600081359050612e77816144ad565b92915050565b600081359050612e8c816144c4565b92915050565b600081359050612ea1816144db565b92915050565b600081359050612eb6816144f2565b92915050565b600081519050612ecb816144f2565b92915050565b600082601f830112612ee257600080fd5b8135612ef2848260208601612e2a565b91505092915050565b600081359050612f0a81614509565b92915050565b600081359050612f1f81614520565b92915050565b600060208284031215612f3757600080fd5b6000612f4584828501612e68565b91505092915050565b60008060408385031215612f6157600080fd5b6000612f6f85828601612e68565b9250506020612f8085828601612e68565b9150509250929050565b600080600060608486031215612f9f57600080fd5b6000612fad86828701612e68565b9350506020612fbe86828701612e68565b9250506040612fcf86828701612efb565b9150509250925092565b60008060008060808587031215612fef57600080fd5b6000612ffd87828801612e68565b945050602061300e87828801612e68565b935050604061301f87828801612efb565b925050606085013567ffffffffffffffff81111561303c57600080fd5b61304887828801612ed1565b91505092959194509250565b6000806040838503121561306757600080fd5b600061307585828601612e68565b925050602061308685828601612e7d565b9150509250929050565b600080604083850312156130a357600080fd5b60006130b185828601612e68565b92505060206130c285828601612efb565b9150509250929050565b60008060008060008060c087890312156130e557600080fd5b60006130f389828a01612e68565b965050602061310489828a01612efb565b955050604061311589828a01612efb565b945050606061312689828a01612f10565b935050608061313789828a01612e92565b92505060a061314889828a01612e92565b9150509295509295509295565b60006020828403121561316757600080fd5b600061317584828501612ea7565b91505092915050565b60006020828403121561319057600080fd5b600061319e84828501612ebc565b91505092915050565b6000602082840312156131b957600080fd5b60006131c784828501612efb565b91505092915050565b6131d981613c8c565b82525050565b6131e881613c9e565b82525050565b6131f781613caa565b82525050565b61320e61320982613caa565b613e05565b82525050565b600061321f82613b8e565b6132298185613ba4565b9350613239818560208601613d26565b61324281613efc565b840191505092915050565b600061325882613b99565b6132628185613bb5565b9350613272818560208601613d26565b61327b81613efc565b840191505092915050565b600061329182613b99565b61329b8185613bc6565b93506132ab818560208601613d26565b80840191505092915050565b60006132c4601883613bb5565b91506132cf82613f0d565b602082019050919050565b60006132e7601483613bb5565b91506132f282613f36565b602082019050919050565b600061330a601f83613bb5565b915061331582613f5f565b602082019050919050565b600061332d603283613bb5565b915061333882613f88565b604082019050919050565b6000613350602683613bb5565b915061335b82613fd7565b604082019050919050565b6000613373602583613bb5565b915061337e82614026565b604082019050919050565b6000613396601c83613bb5565b91506133a182614075565b602082019050919050565b60006133b9600283613bc6565b91506133c48261409e565b600282019050919050565b60006133dc602483613bb5565b91506133e7826140c7565b604082019050919050565b60006133ff601983613bb5565b915061340a82614116565b602082019050919050565b6000613422602283613bb5565b915061342d8261413f565b604082019050919050565b6000613445602083613bb5565b91506134508261418e565b602082019050919050565b6000613468602983613bb5565b9150613473826141b7565b604082019050919050565b600061348b601883613bb5565b915061349682614206565b602082019050919050565b60006134ae601a83613bb5565b91506134b98261422f565b602082019050919050565b60006134d1602283613bb5565b91506134dc82614258565b604082019050919050565b60006134f4603e83613bb5565b91506134ff826142a7565b604082019050919050565b6000613517602083613bb5565b9150613522826142f6565b602082019050919050565b600061353a602083613bb5565b91506135458261431f565b602082019050919050565b600061355d602783613bb5565b915061356882614348565b604082019050919050565b6000613580601883613bb5565b915061358b82614397565b602082019050919050565b60006135a3602183613bb5565b91506135ae826143c0565b604082019050919050565b60006135c6602683613bb5565b91506135d18261440f565b604082019050919050565b60006135e9602e83613bb5565b91506135f48261445e565b604082019050919050565b61360881613d00565b82525050565b61361781613d0a565b82525050565b60006136298285613286565b91506136358284613286565b91508190509392505050565b600061364c826133ac565b915061365882856131fd565b60208201915061366882846131fd565b6020820191508190509392505050565b600060208201905061368d60008301846131d0565b92915050565b60006080820190506136a860008301876131d0565b6136b560208301866131d0565b6136c260408301856135ff565b81810360608301526136d48184613214565b905095945050505050565b60006020820190506136f460008301846131df565b92915050565b600060208201905061370f60008301846131ee565b92915050565b600060808201905061372a60008301876131ee565b61373760208301866131d0565b61374460408301856135ff565b61375160608301846135ff565b95945050505050565b600060a08201905061376f60008301886131ee565b61377c60208301876131ee565b61378960408301866131ee565b61379660608301856135ff565b6137a360808301846131d0565b9695505050505050565b60006080820190506137c260008301876131ee565b6137cf602083018661360e565b6137dc60408301856131ee565b6137e960608301846131ee565b95945050505050565b6000602082019050818103600083015261380c818461324d565b905092915050565b6000602082019050818103600083015261382d816132b7565b9050919050565b6000602082019050818103600083015261384d816132da565b9050919050565b6000602082019050818103600083015261386d816132fd565b9050919050565b6000602082019050818103600083015261388d81613320565b9050919050565b600060208201905081810360008301526138ad81613343565b9050919050565b600060208201905081810360008301526138cd81613366565b9050919050565b600060208201905081810360008301526138ed81613389565b9050919050565b6000602082019050818103600083015261390d816133cf565b9050919050565b6000602082019050818103600083015261392d816133f2565b9050919050565b6000602082019050818103600083015261394d81613415565b9050919050565b6000602082019050818103600083015261396d81613438565b9050919050565b6000602082019050818103600083015261398d8161345b565b9050919050565b600060208201905081810360008301526139ad8161347e565b9050919050565b600060208201905081810360008301526139cd816134a1565b9050919050565b600060208201905081810360008301526139ed816134c4565b9050919050565b60006020820190508181036000830152613a0d816134e7565b9050919050565b60006020820190508181036000830152613a2d8161350a565b9050919050565b60006020820190508181036000830152613a4d8161352d565b9050919050565b60006020820190508181036000830152613a6d81613550565b9050919050565b60006020820190508181036000830152613a8d81613573565b9050919050565b60006020820190508181036000830152613aad81613596565b9050919050565b60006020820190508181036000830152613acd816135b9565b9050919050565b60006020820190508181036000830152613aed816135dc565b9050919050565b6000602082019050613b0960008301846135ff565b92915050565b6000604082019050613b2460008301856135ff565b613b3160208301846135ff565b9392505050565b6000613b42613b53565b9050613b4e8282613d8b565b919050565b6000604051905090565b600067ffffffffffffffff821115613b7857613b77613ecd565b5b613b8182613efc565b9050602081019050919050565b600081519050919050565b600081519050919050565b600082825260208201905092915050565b600082825260208201905092915050565b600081905092915050565b6000613bdc82613d00565b9150613be783613d00565b9250827fffffffffffffffffffffffffffffffffffffffffffffffffffffffffffffffff03821115613c1c57613c1b613e40565b5b828201905092915050565b6000613c3282613d00565b9150613c3d83613d00565b925082613c4d57613c4c613e6f565b5b828204905092915050565b6000613c6382613d00565b9150613c6e83613d00565b925082821015613c8157613c80613e40565b5b828203905092915050565b6000613c9782613ce0565b9050919050565b60008115159050919050565b6000819050919050565b60007fffffffff0000000000000000000000000000000000000000000000000000000082169050919050565b600073ffffffffffffffffffffffffffffffffffffffff82169050919050565b6000819050919050565b600060ff82169050919050565b82818337600083830152505050565b60005b83811015613d44578082015181840152602081019050613d29565b83811115613d53576000848401525b50505050565b60006002820490506001821680613d7157607f821691505b60208210811415613d8557613d84613e9e565b5b50919050565b613d9482613efc565b810181811067ffffffffffffffff82111715613db357613db2613ecd565b5b80604052505050565b6000613dc782613d00565b91507fffffffffffffffffffffffffffffffffffffffffffffffffffffffffffffffff821415613dfa57613df9613e40565b5b600182019050919050565b6000819050919050565b6000613e1a82613d00565b9150613e2583613d00565b925082613e3557613e34613e6f565b5b828206905092915050565b7f4e487b7100000000000000000000000000000000000000000000000000000000600052601160045260246000fd5b7f4e487b7100000000000000000000000000000000000000000000000000000000600052601260045260246000fd5b7f4e487b7100000000000000000000000000000000000000000000000000000000600052602260045260246000fd5b7f4e487b7100000000000000000000000000000000000000000000000000000000600052604160045260246000fd5b6000601f19601f8301169050919050565b7f45434453413a20696e76616c6964207369676e61747572650000000000000000600082015250565b7f566f7465733a20696e76616c6964206e6f6e6365000000000000000000000000600082015250565b7f45434453413a20696e76616c6964207369676e6174757265206c656e67746800600082015250565b7f4552433732313a207472616e7366657220746f206e6f6e20455243373231526560008201527f63656976657220696d706c656d656e7465720000000000000000000000000000602082015250565b7f4f776e61626c653a206e6577206f776e657220697320746865207a65726f206160008201527f6464726573730000000000000000000000000000000000000000000000000000602082015250565b7f4552433732313a207472616e736665722066726f6d20696e636f72726563742060008201527f6f776e6572000000000000000000000000000000000000000000000000000000602082015250565b7f4552433732313a20746f6b656e20616c7265616479206d696e74656400000000600082015250565b7f1901000000000000000000000000000000000000000000000000000000000000600082015250565b7f4552433732313a207472616e7366657220746f20746865207a65726f2061646460008201527f7265737300000000000000000000000000000000000000000000000000000000602082015250565b7f4552433732313a20617070726f766520746f2063616c6c657200000000000000600082015250565b7f45434453413a20696e76616c6964207369676e6174757265202773272076616c60008201527f7565000000000000000000000000000000000000000000000000000000000000602082015250565b7f436865636b706f696e74733a20626c6f636b206e6f7420796574206d696e6564600082015250565b7f4552433732313a2061646472657373207a65726f206973206e6f74206120766160008201527f6c6964206f776e65720000000000000000000000000000000000000000000000602082015250565b7f566f7465733a207369676e617475726520657870697265640000000000000000600082015250565b7f566f7465733a20626c6f636b206e6f7420796574206d696e6564000000000000600082015250565b7f45434453413a20696e76616c6964207369676e6174757265202776272076616c60008201527f7565000000000000000000000000000000000000000000000000000000000000602082015250565b7f4552433732313a20617070726f76652063616c6c6572206973206e6f7420746f60008201527f6b656e206f776e6572206e6f7220617070726f76656420666f7220616c6c0000602082015250565b7f4552433732313a206d696e7420746f20746865207a65726f2061646472657373600082015250565b7f4f776e61626c653a2063616c6c6572206973206e6f7420746865206f776e6572600082015250565b7f53616665436173743a2076616c756520646f65736e27742066697420696e203260008201527f3234206269747300000000000000000000000000000000000000000000000000602082015250565b7f4552433732313a20696e76616c696420746f6b656e2049440000000000000000600082015250565b7f4552433732313a20617070726f76616c20746f2063757272656e74206f776e6560008201527f7200000000000000000000000000000000000000000000000000000000000000602082015250565b7f53616665436173743a2076616c756520646f65736e27742066697420696e203360008201527f3220626974730000000000000000000000000000000000000000000000000000602082015250565b7f4552433732313a2063616c6c6572206973206e6f7420746f6b656e206f776e6560008201527f72206e6f7220617070726f766564000000000000000000000000000000000000602082015250565b6144b681613c8c565b81146144c157600080fd5b50565b6144cd81613c9e565b81146144d857600080fd5b50565b6144e481613caa565b81146144ef57600080fd5b50565b6144fb81613cb4565b811461450657600080fd5b50565b61451281613d00565b811461451d57600080fd5b50565b61452981613d0a565b811461453457600080fd5b5056fea2646970667358221220d6ab9f7d15f86ba49e381a92ccd314f94cb6d7dd9a090346b73a585ccbbbe3f264736f6c63430008040033",
  "linkReferences": {},
  "deployedLinkReferences": {}
}