{
  "_format": "hh-sol-artifact-1",
  "contractName": "MembershipNFT",
  "sourceName": "contracts/MembershipNFT.sol",
  "abi": [
    {
      "inputs": [
        {
          "internalType": "string",
          "name": "name",
          "type": "string"
        },
        {
          "internalType": "string",
          "name": "symbol",
          "type": "string"
        }
      ],
      "stateMutability": "nonpayable",
      "type": "constructor"
    },
    {
      "anonymous": false,
      "inputs": [
        {
          "indexed": true,
          "internalType": "address",
          "name": "owner",
          "type": "address"
        },
        {
          "indexed": true,
          "internalType": "address",
          "name": "approved",
          "type": "address"
        },
        {
          "indexed": true,
          "internalType": "uint256",
          "name": "tokenId",
          "type": "uint256"
        }
      ],
      "name": "Approval",
      "type": "event"
    },
    {
      "anonymous": false,
      "inputs": [
        {
          "indexed": true,
          "internalType": "address",
          "name": "owner",
          "type": "address"
        },
        {
          "indexed": true,
          "internalType": "address",
          "name": "operator",
          "type": "address"
        },
        {
          "indexed": false,
          "internalType": "bool",
          "name": "approved",
          "type": "bool"
        }
      ],
      "name": "ApprovalForAll",
      "type": "event"
    },
    {
      "anonymous": false,
      "inputs": [
        {
          "indexed": true,
          "internalType": "address",
          "name": "delegator",
          "type": "address"
        },
        {
          "indexed": true,
          "internalType": "address",
          "name": "fromDelegate",
          "type": "address"
        },
        {
          "indexed": true,
          "internalType": "address",
          "name": "toDelegate",
          "type": "address"
        }
      ],
      "name": "DelegateChanged",
      "type": "event"
    },
    {
      "anonymous": false,
      "inputs": [
        {
          "indexed": true,
          "internalType": "address",
          "name": "delegate",
          "type": "address"
        },
        {
          "indexed": false,
          "internalType": "uint256",
          "name": "previousBalance",
          "type": "uint256"
        },
        {
          "indexed": false,
          "internalType": "uint256",
          "name": "newBalance",
          "type": "uint256"
        }
      ],
      "name": "DelegateVotesChanged",
      "type": "event"
    },
    {
      "anonymous": false,
      "inputs": [
        {
          "indexed": true,
          "internalType": "address",
          "name": "previousOwner",
          "type": "address"
        },
        {
          "indexed": true,
          "internalType": "address",
          "name": "newOwner",
          "type": "address"
        }
      ],
      "name": "OwnershipTransferred",
      "type": "event"
    },
    {
      "anonymous": false,
      "inputs": [
        {
          "indexed": true,
          "internalType": "address",
          "name": "from",
          "type": "address"
        },
        {
          "indexed": true,
          "internalType": "address",
          "name": "to",
          "type": "address"
        },
        {
          "indexed": true,
          "internalType": "uint256",
          "name": "tokenId",
          "type": "uint256"
        }
      ],
      "name": "Transfer",
      "type": "event"
    },
    {
      "inputs": [],
      "name": "DOMAIN_SEPARATOR",
      "outputs": [
        {
          "internalType": "bytes32",
          "name": "",
          "type": "bytes32"
        }
      ],
      "stateMutability": "view",
      "type": "function"
    },
    {
      "inputs": [
        {
          "internalType": "address",
          "name": "to",
          "type": "address"
        },
        {
          "internalType": "uint256",
          "name": "tokenId",
          "type": "uint256"
        }
      ],
      "name": "approve",
      "outputs": [],
      "stateMutability": "nonpayable",
      "type": "function"
    },
    {
      "inputs": [
        {
          "internalType": "address",
          "name": "owner",
          "type": "address"
        }
      ],
      "name": "balanceOf",
      "outputs": [
        {
          "internalType": "uint256",
          "name": "",
          "type": "uint256"
        }
      ],
      "stateMutability": "view",
      "type": "function"
    },
    {
      "inputs": [
        {
          "internalType": "address",
          "name": "delegatee",
          "type": "address"
        }
      ],
      "name": "delegate",
      "outputs": [],
      "stateMutability": "nonpayable",
      "type": "function"
    },
    {
      "inputs": [
        {
          "internalType": "address",
          "name": "delegatee",
          "type": "address"
        },
        {
          "internalType": "uint256",
          "name": "nonce",
          "type": "uint256"
        },
        {
          "internalType": "uint256",
          "name": "expiry",
          "type": "uint256"
        },
        {
          "internalType": "uint8",
          "name": "v",
          "type": "uint8"
        },
        {
          "internalType": "bytes32",
          "name": "r",
          "type": "bytes32"
        },
        {
          "internalType": "bytes32",
          "name": "s",
          "type": "bytes32"
        }
      ],
      "name": "delegateBySig",
      "outputs": [],
      "stateMutability": "nonpayable",
      "type": "function"
    },
    {
      "inputs": [
        {
          "internalType": "address",
          "name": "account",
          "type": "address"
        }
      ],
      "name": "delegates",
      "outputs": [
        {
          "internalType": "address",
          "name": "",
          "type": "address"
        }
      ],
      "stateMutability": "view",
      "type": "function"
    },
    {
      "inputs": [
        {
          "internalType": "uint256",
          "name": "tokenId",
          "type": "uint256"
        }
      ],
      "name": "getApproved",
      "outputs": [
        {
          "internalType": "address",
          "name": "",
          "type": "address"
        }
      ],
      "stateMutability": "view",
      "type": "function"
    },
    {
      "inputs": [
        {
          "internalType": "uint256",
          "name": "blockNumber",
          "type": "uint256"
        }
      ],
      "name": "getPastTotalSupply",
      "outputs": [
        {
          "internalType": "uint256",
          "name": "",
          "type": "uint256"
        }
      ],
      "stateMutability": "view",
      "type": "function"
    },
    {
      "inputs": [
        {
          "internalType": "address",
          "name": "account",
          "type": "address"
        },
        {
          "internalType": "uint256",
          "name": "blockNumber",
          "type": "uint256"
        }
      ],
      "name": "getPastVotes",
      "outputs": [
        {
          "internalType": "uint256",
          "name": "",
          "type": "uint256"
        }
      ],
      "stateMutability": "view",
      "type": "function"
    },
    {
      "inputs": [
        {
          "internalType": "address",
          "name": "account",
          "type": "address"
        }
      ],
      "name": "getVotes",
      "outputs": [
        {
          "internalType": "uint256",
          "name": "",
          "type": "uint256"
        }
      ],
      "stateMutability": "view",
      "type": "function"
    },
    {
      "inputs": [
        {
          "internalType": "address",
          "name": "owner",
          "type": "address"
        },
        {
          "internalType": "address",
          "name": "operator",
          "type": "address"
        }
      ],
      "name": "isApprovedForAll",
      "outputs": [
        {
          "internalType": "bool",
          "name": "",
          "type": "bool"
        }
      ],
      "stateMutability": "view",
      "type": "function"
    },
    {
      "inputs": [],
      "name": "name",
      "outputs": [
        {
          "internalType": "string",
          "name": "",
          "type": "string"
        }
      ],
      "stateMutability": "view",
      "type": "function"
    },
    {
      "inputs": [
        {
          "internalType": "address",
          "name": "owner",
          "type": "address"
        }
      ],
      "name": "nonces",
      "outputs": [
        {
          "internalType": "uint256",
          "name": "",
          "type": "uint256"
        }
      ],
      "stateMutability": "view",
      "type": "function"
    },
    {
      "inputs": [],
      "name": "owner",
      "outputs": [
        {
          "internalType": "address",
          "name": "",
          "type": "address"
        }
      ],
      "stateMutability": "view",
      "type": "function"
    },
    {
      "inputs": [
        {
          "internalType": "uint256",
          "name": "tokenId",
          "type": "uint256"
        }
      ],
      "name": "ownerOf",
      "outputs": [
        {
          "internalType": "address",
          "name": "",
          "type": "address"
        }
      ],
      "stateMutability": "view",
      "type": "function"
    },
    {
      "inputs": [],
      "name": "renounceOwnership",
      "outputs": [],
      "stateMutability": "nonpayable",
      "type": "function"
    },
    {
      "inputs": [
        {
          "internalType": "address",
          "name": "to",
          "type": "address"
        }
      ],
      "name": "safeMint",
      "outputs": [],
      "stateMutability": "nonpayable",
      "type": "function"
    },
    {
      "inputs": [
        {
          "internalType": "address",
          "name": "from",
          "type": "address"
        },
        {
          "internalType": "address",
          "name": "to",
          "type": "address"
        },
        {
          "internalType": "uint256",
          "name": "tokenId",
          "type": "uint256"
        }
      ],
      "name": "safeTransferFrom",
      "outputs": [],
      "stateMutability": "nonpayable",
      "type": "function"
    },
    {
      "inputs": [
        {
          "internalType": "address",
          "name": "from",
          "type": "address"
        },
        {
          "internalType": "address",
          "name": "to",
          "type": "address"
        },
        {
          "internalType": "uint256",
          "name": "tokenId",
          "type": "uint256"
        },
        {
          "internalType": "bytes",
          "name": "_data",
          "type": "bytes"
        }
      ],
      "name": "safeTransferFrom",
      "outputs": [],
      "stateMutability": "nonpayable",
      "type": "function"
    },
    {
      "inputs": [
        {
          "internalType": "address",
          "name": "operator",
          "type": "address"
        },
        {
          "internalType": "bool",
          "name": "approved",
          "type": "bool"
        }
      ],
      "name": "setApprovalForAll",
      "outputs": [],
      "stateMutability": "nonpayable",
      "type": "function"
    },
    {
      "inputs": [
        {
          "internalType": "bytes4",
          "name": "interfaceId",
          "type": "bytes4"
        }
      ],
      "name": "supportsInterface",
      "outputs": [
        {
          "internalType": "bool",
          "name": "",
          "type": "bool"
        }
      ],
      "stateMutability": "view",
      "type": "function"
    },
    {
      "inputs": [],
      "name": "symbol",
      "outputs": [
        {
          "internalType": "string",
          "name": "",
          "type": "string"
        }
      ],
      "stateMutability": "view",
      "type": "function"
    },
    {
      "inputs": [
        {
          "internalType": "uint256",
          "name": "tokenId",
          "type": "uint256"
        }
      ],
      "name": "tokenURI",
      "outputs": [
        {
          "internalType": "string",
          "name": "",
          "type": "string"
        }
      ],
      "stateMutability": "view",
      "type": "function"
    },
    {
      "inputs": [
        {
          "internalType": "address",
          "name": "from",
          "type": "address"
        },
        {
          "internalType": "address",
          "name": "to",
          "type": "address"
        },
        {
          "internalType": "uint256",
          "name": "tokenId",
          "type": "uint256"
        }
      ],
      "name": "transferFrom",
      "outputs": [],
      "stateMutability": "nonpayable",
      "type": "function"
    },
    {
      "inputs": [
        {
          "internalType": "address",
          "name": "newOwner",
          "type": "address"
        }
      ],
      "name": "transferOwnership",
      "outputs": [],
      "stateMutability": "nonpayable",
      "type": "function"
    }
  ],
  "bytecode": "0x6101406040523480156200001257600080fd5b5060405162004f5f38038062004f5f8339818101604052810190620000389190620003ae565b816040518060400160405280600181526020017f310000000000000000000000000000000000000000000000000000000000000081525083838160009080519060200190620000899291906200028c565b508060019080519060200190620000a29291906200028c565b505050620000c5620000b96200018260201b60201c565b6200018a60201b60201c565b60008280519060200120905060008280519060200120905060007f8b73c3c69bb8fe3d512ecc4cf759cc79239f7b179b0ffacaa9a75d522b39400f90508260e081815250508161010081815250504660a081815250506200012e8184846200025060201b60201c565b608081815250503073ffffffffffffffffffffffffffffffffffffffff1660c08173ffffffffffffffffffffffffffffffffffffffff1660601b815250508061012081815250505050505050505062000669565b600033905090565b6000600660009054906101000a900473ffffffffffffffffffffffffffffffffffffffff16905081600660006101000a81548173ffffffffffffffffffffffffffffffffffffffff021916908373ffffffffffffffffffffffffffffffffffffffff1602179055508173ffffffffffffffffffffffffffffffffffffffff168173ffffffffffffffffffffffffffffffffffffffff167f8be0079c531659141344cd1fd0a4f28419497f9722a3daafe3b4186f6b6457e060405160405180910390a35050565b600083838346306040516020016200026d95949392919062000454565b6040516020818303038152906040528051906020012090509392505050565b8280546200029a906200058e565b90600052602060002090601f016020900481019282620002be57600085556200030a565b82601f10620002d957805160ff19168380011785556200030a565b828001600101855582156200030a579182015b8281111562000309578251825591602001919060010190620002ec565b5b5090506200031991906200031d565b5090565b5b80821115620003385760008160009055506001016200031e565b5090565b6000620003536200034d84620004da565b620004b1565b9050828152602081018484840111156200036c57600080fd5b6200037984828562000558565b509392505050565b600082601f8301126200039357600080fd5b8151620003a58482602086016200033c565b91505092915050565b60008060408385031215620003c257600080fd5b600083015167ffffffffffffffff811115620003dd57600080fd5b620003eb8582860162000381565b925050602083015167ffffffffffffffff8111156200040957600080fd5b620004178582860162000381565b9150509250929050565b6200042c8162000510565b82525050565b6200043d8162000524565b82525050565b6200044e816200054e565b82525050565b600060a0820190506200046b600083018862000432565b6200047a602083018762000432565b62000489604083018662000432565b62000498606083018562000443565b620004a7608083018462000421565b9695505050505050565b6000620004bd620004d0565b9050620004cb8282620005c4565b919050565b6000604051905090565b600067ffffffffffffffff821115620004f857620004f762000629565b5b620005038262000658565b9050602081019050919050565b60006200051d826200052e565b9050919050565b6000819050919050565b600073ffffffffffffffffffffffffffffffffffffffff82169050919050565b6000819050919050565b60005b83811015620005785780820151818401526020810190506200055b565b8381111562000588576000848401525b50505050565b60006002820490506001821680620005a757607f821691505b60208210811415620005be57620005bd620005fa565b5b50919050565b620005cf8262000658565b810181811067ffffffffffffffff82111715620005f157620005f062000629565b5b80604052505050565b7f4e487b7100000000000000000000000000000000000000000000000000000000600052602260045260246000fd5b7f4e487b7100000000000000000000000000000000000000000000000000000000600052604160045260246000fd5b6000601f19601f8301169050919050565b60805160a05160c05160601c60e05161010051610120516148a3620006bc600039600061170c0152600061174e0152600061172d01526000611662015260006116b8015260006116e101526148a36000f3fe608060405234801561001057600080fd5b50600436106101735760003560e01c806370a08231116100de5780639ab24eb011610097578063c3cda52011610071578063c3cda5201461046e578063c87b56dd1461048a578063e985e9c5146104ba578063f2fde38b146104ea57610173565b80639ab24eb014610406578063a22cb46514610436578063b88d4fde1461045257610173565b806370a0823114610330578063715018a6146103605780637ecebe001461036a5780638da5cb5b1461039a5780638e539e8c146103b857806395d89b41146103e857610173565b80633a46b1a8116101305780633a46b1a81461024c57806340d097c31461027c57806342842e0e14610298578063587cde1e146102b45780635c19a95c146102e45780636352211e1461030057610173565b806301ffc9a71461017857806306fdde03146101a8578063081812fc146101c6578063095ea7b3146101f657806323b872dd146102125780633644e5151461022e575b600080fd5b610192600480360381019061018d91906132af565b610506565b60405161019f91906138a2565b60405180910390f35b6101b06105e8565b6040516101bd91906139b5565b60405180910390f35b6101e060048036038101906101db9190613301565b61067a565b6040516101ed919061383b565b60405180910390f35b610210600480360381019061020b91906131ea565b6106ff565b005b61022c600480360381019061022791906130e4565b610817565b005b610236610877565b60405161024391906138bd565b60405180910390f35b610266600480360381019061026191906131ea565b610886565b6040516102739190613d17565b60405180910390f35b6102966004803603810190610291919061307f565b6108e1565b005b6102b260048036038101906102ad91906130e4565b610983565b005b6102ce60048036038101906102c9919061307f565b6109a3565b6040516102db919061383b565b60405180910390f35b6102fe60048036038101906102f9919061307f565b610a0c565b005b61031a60048036038101906103159190613301565b610a26565b604051610327919061383b565b60405180910390f35b61034a6004803603810190610345919061307f565b610ad8565b6040516103579190613d17565b60405180910390f35b610368610b90565b005b610384600480360381019061037f919061307f565b610c18565b6040516103919190613d17565b60405180910390f35b6103a2610c68565b6040516103af919061383b565b60405180910390f35b6103d260048036038101906103cd9190613301565b610c92565b6040516103df9190613d17565b60405180910390f35b6103f0610cf1565b6040516103fd91906139b5565b60405180910390f35b610420600480360381019061041b919061307f565b610d83565b60405161042d9190613d17565b60405180910390f35b610450600480360381019061044b91906131ae565b610dd3565b005b61046c60048036038101906104679190613133565b610de9565b005b61048860048036038101906104839190613226565b610e4b565b005b6104a4600480360381019061049f9190613301565b610f4f565b6040516104b191906139b5565b60405180910390f35b6104d460048036038101906104cf91906130a8565b610ff6565b6040516104e191906138a2565b60405180910390f35b61050460048036038101906104ff919061307f565b61108a565b005b60007f80ac58cd000000000000000000000000000000000000000000000000000000007bffffffffffffffffffffffffffffffffffffffffffffffffffffffff1916827bffffffffffffffffffffffffffffffffffffffffffffffffffffffff191614806105d157507f5b5e139f000000000000000000000000000000000000000000000000000000007bffffffffffffffffffffffffffffffffffffffffffffffffffffffff1916827bffffffffffffffffffffffffffffffffffffffffffffffffffffffff1916145b806105e157506105e082611182565b5b9050919050565b6060600080546105f790613f7c565b80601f016020809104026020016040519081016040528092919081815260200182805461062390613f7c565b80156106705780601f1061064557610100808354040283529160200191610670565b820191906000526020600020905b81548152906001019060200180831161065357829003601f168201915b5050505050905090565b6000610685826111ec565b6106c4576040517f08c379a00000000000000000000000000000000000000000000000000000000081526004016106bb90613c37565b60405180910390fd5b6004600083815260200190815260200160002060009054906101000a900473ffffffffffffffffffffffffffffffffffffffff169050919050565b600061070a82610a26565b90508073ffffffffffffffffffffffffffffffffffffffff168373ffffffffffffffffffffffffffffffffffffffff16141561077b576040517f08c379a000000000000000000000000000000000000000000000000000000000815260040161077290613cb7565b60405180910390fd5b8073ffffffffffffffffffffffffffffffffffffffff1661079a611258565b73ffffffffffffffffffffffffffffffffffffffff1614806107c957506107c8816107c3611258565b610ff6565b5b610808576040517f08c379a00000000000000000000000000000000000000000000000000000000081526004016107ff90613b77565b60405180910390fd5b6108128383611260565b505050565b610828610822611258565b82611319565b610867576040517f08c379a000000000000000000000000000000000000000000000000000000000815260040161085e90613cd7565b60405180910390fd5b6108728383836113f7565b505050565b600061088161165e565b905090565b60006108d982600860008673ffffffffffffffffffffffffffffffffffffffff1673ffffffffffffffffffffffffffffffffffffffff16815260200190815260200160002061177890919063ffffffff16565b905092915050565b6108e9611258565b73ffffffffffffffffffffffffffffffffffffffff16610907610c68565b73ffffffffffffffffffffffffffffffffffffffff161461095d576040517f08c379a000000000000000000000000000000000000000000000000000000000815260040161095490613c57565b60405180910390fd5b6000610969600b61191c565b9050610975600b61192a565b61097f8282611940565b5050565b61099e83838360405180602001604052806000815250610de9565b505050565b6000600760008373ffffffffffffffffffffffffffffffffffffffff1673ffffffffffffffffffffffffffffffffffffffff16815260200190815260200160002060009054906101000a900473ffffffffffffffffffffffffffffffffffffffff169050919050565b6000610a16611258565b9050610a22818361195e565b5050565b6000806002600084815260200190815260200160002060009054906101000a900473ffffffffffffffffffffffffffffffffffffffff169050600073ffffffffffffffffffffffffffffffffffffffff168173ffffffffffffffffffffffffffffffffffffffff161415610acf576040517f08c379a0000000000000000000000000000000000000000000000000000000008152600401610ac690613bb7565b60405180910390fd5b80915050919050565b60008073ffffffffffffffffffffffffffffffffffffffff168273ffffffffffffffffffffffffffffffffffffffff161415610b49576040517f08c379a0000000000000000000000000000000000000000000000000000000008152600401610b4090613b97565b60405180910390fd5b600360008373ffffffffffffffffffffffffffffffffffffffff1673ffffffffffffffffffffffffffffffffffffffff168152602001908152602001600020549050919050565b610b98611258565b73ffffffffffffffffffffffffffffffffffffffff16610bb6610c68565b73ffffffffffffffffffffffffffffffffffffffff1614610c0c576040517f08c379a0000000000000000000000000000000000000000000000000000000008152600401610c0390613c57565b60405180910390fd5b610c166000611a72565b565b6000610c61600a60008473ffffffffffffffffffffffffffffffffffffffff1673ffffffffffffffffffffffffffffffffffffffff16815260200190815260200160002061191c565b9050919050565b6000600660009054906101000a900473ffffffffffffffffffffffffffffffffffffffff16905090565b6000438210610cd6576040517f08c379a0000000000000000000000000000000000000000000000000000000008152600401610ccd90613bd7565b60405180910390fd5b610cea82600961177890919063ffffffff16565b9050919050565b606060018054610d0090613f7c565b80601f0160208091040260200160405190810160405280929190818152602001828054610d2c90613f7c565b8015610d795780601f10610d4e57610100808354040283529160200191610d79565b820191906000526020600020905b815481529060010190602001808311610d5c57829003601f168201915b5050505050905090565b6000610dcc600860008473ffffffffffffffffffffffffffffffffffffffff1673ffffffffffffffffffffffffffffffffffffffff168152602001908152602001600020611b38565b9050919050565b610de5610dde611258565b8383611bf9565b5050565b610dfa610df4611258565b83611319565b610e39576040517f08c379a0000000000000000000000000000000000000000000000000000000008152600401610e3090613cd7565b60405180910390fd5b610e4584848484611d66565b50505050565b83421115610e8e576040517f08c379a0000000000000000000000000000000000000000000000000000000008152600401610e8590613b57565b60405180910390fd5b6000610ef0610ee87fe48329057bfd03d55e49b547132e39cffd9c1820ad7b9d4c5307691425d15adf898989604051602001610ecd94939291906138d8565b60405160208183030381529060405280519060200120611dc2565b858585611ddc565b9050610efb81611e07565b8614610f3c576040517f08c379a0000000000000000000000000000000000000000000000000000000008152600401610f33906139f7565b60405180910390fd5b610f46818861195e565b50505050505050565b6060610f5a826111ec565b610f99576040517f08c379a0000000000000000000000000000000000000000000000000000000008152600401610f9090613c97565b60405180910390fd5b6000610fa3611e65565b90506000815111610fc35760405180602001604052806000815250610fee565b80610fcd84611e7c565b604051602001610fde9291906137e0565b6040516020818303038152906040525b915050919050565b6000600560008473ffffffffffffffffffffffffffffffffffffffff1673ffffffffffffffffffffffffffffffffffffffff16815260200190815260200160002060008373ffffffffffffffffffffffffffffffffffffffff1673ffffffffffffffffffffffffffffffffffffffff16815260200190815260200160002060009054906101000a900460ff16905092915050565b611092611258565b73ffffffffffffffffffffffffffffffffffffffff166110b0610c68565b73ffffffffffffffffffffffffffffffffffffffff1614611106576040517f08c379a00000000000000000000000000000000000000000000000000000000081526004016110fd90613c57565b60405180910390fd5b600073ffffffffffffffffffffffffffffffffffffffff168173ffffffffffffffffffffffffffffffffffffffff161415611176576040517f08c379a000000000000000000000000000000000000000000000000000000000815260040161116d90613a57565b60405180910390fd5b61117f81611a72565b50565b60007f01ffc9a7000000000000000000000000000000000000000000000000000000007bffffffffffffffffffffffffffffffffffffffffffffffffffffffff1916827bffffffffffffffffffffffffffffffffffffffffffffffffffffffff1916149050919050565b60008073ffffffffffffffffffffffffffffffffffffffff166002600084815260200190815260200160002060009054906101000a900473ffffffffffffffffffffffffffffffffffffffff1673ffffffffffffffffffffffffffffffffffffffff1614159050919050565b600033905090565b816004600083815260200190815260200160002060006101000a81548173ffffffffffffffffffffffffffffffffffffffff021916908373ffffffffffffffffffffffffffffffffffffffff160217905550808273ffffffffffffffffffffffffffffffffffffffff166112d383610a26565b73ffffffffffffffffffffffffffffffffffffffff167f8c5be1e5ebec7d5bd14f71427d1e84f3dd0314c0f7b2291e5b200ac8c7c3b92560405160405180910390a45050565b6000611324826111ec565b611363576040517f08c379a000000000000000000000000000000000000000000000000000000000815260040161135a90613b17565b60405180910390fd5b600061136e83610a26565b90508073ffffffffffffffffffffffffffffffffffffffff168473ffffffffffffffffffffffffffffffffffffffff1614806113b057506113af8185610ff6565b5b806113ee57508373ffffffffffffffffffffffffffffffffffffffff166113d68461067a565b73ffffffffffffffffffffffffffffffffffffffff16145b91505092915050565b8273ffffffffffffffffffffffffffffffffffffffff1661141782610a26565b73ffffffffffffffffffffffffffffffffffffffff161461146d576040517f08c379a000000000000000000000000000000000000000000000000000000000815260040161146490613a77565b60405180910390fd5b600073ffffffffffffffffffffffffffffffffffffffff168273ffffffffffffffffffffffffffffffffffffffff1614156114dd576040517f08c379a00000000000000000000000000000000000000000000000000000000081526004016114d490613ab7565b60405180910390fd5b6114e8838383612029565b6114f3600082611260565b6001600360008573ffffffffffffffffffffffffffffffffffffffff1673ffffffffffffffffffffffffffffffffffffffff16815260200190815260200160002060008282546115439190613e7b565b925050819055506001600360008473ffffffffffffffffffffffffffffffffffffffff1673ffffffffffffffffffffffffffffffffffffffff168152602001908152602001600020600082825461159a9190613df4565b92505081905550816002600083815260200190815260200160002060006101000a81548173ffffffffffffffffffffffffffffffffffffffff021916908373ffffffffffffffffffffffffffffffffffffffff160217905550808273ffffffffffffffffffffffffffffffffffffffff168473ffffffffffffffffffffffffffffffffffffffff167fddf252ad1be2c89b69c2b068fc378daa952ba7f163c4a11628f55a4df523b3ef60405160405180910390a461165983838361202e565b505050565b60007f000000000000000000000000000000000000000000000000000000000000000073ffffffffffffffffffffffffffffffffffffffff163073ffffffffffffffffffffffffffffffffffffffff161480156116da57507f000000000000000000000000000000000000000000000000000000000000000046145b15611707577f00000000000000000000000000000000000000000000000000000000000000009050611775565b6117727f00000000000000000000000000000000000000000000000000000000000000007f00000000000000000000000000000000000000000000000000000000000000007f000000000000000000000000000000000000000000000000000000000000000061203e565b90505b90565b60004382106117bc576040517f08c379a00000000000000000000000000000000000000000000000000000000081526004016117b390613b37565b60405180910390fd5b60008360000180549050905060005b818110156118665760006117df8284612078565b90508486600001828154811061181e577f4e487b7100000000000000000000000000000000000000000000000000000000600052603260045260246000fd5b9060005260206000200160000160009054906101000a900463ffffffff1663ffffffff16111561185057809250611860565b60018161185d9190613df4565b91505b506117cb565b600082146118f1578460000160018361187f9190613e7b565b815481106118b6577f4e487b7100000000000000000000000000000000000000000000000000000000600052603260045260246000fd5b9060005260206000200160000160049054906101000a90047bffffffffffffffffffffffffffffffffffffffffffffffffffffffff166118f4565b60005b7bffffffffffffffffffffffffffffffffffffffffffffffffffffffff169250505092915050565b600081600001549050919050565b6001816000016000828254019250508190555050565b61195a82826040518060200160405280600081525061209e565b5050565b6000611969836109a3565b905081600760008573ffffffffffffffffffffffffffffffffffffffff1673ffffffffffffffffffffffffffffffffffffffff16815260200190815260200160002060006101000a81548173ffffffffffffffffffffffffffffffffffffffff021916908373ffffffffffffffffffffffffffffffffffffffff1602179055508173ffffffffffffffffffffffffffffffffffffffff168173ffffffffffffffffffffffffffffffffffffffff168473ffffffffffffffffffffffffffffffffffffffff167f3134e8a2e6d97e929a7e54011ea5485d7d196dd5f0ba4d4ef95803e8e3fc257f60405160405180910390a4611a6d8183611a68866120f9565b61210b565b505050565b6000600660009054906101000a900473ffffffffffffffffffffffffffffffffffffffff16905081600660006101000a81548173ffffffffffffffffffffffffffffffffffffffff021916908373ffffffffffffffffffffffffffffffffffffffff1602179055508173ffffffffffffffffffffffffffffffffffffffff168173ffffffffffffffffffffffffffffffffffffffff167f8be0079c531659141344cd1fd0a4f28419497f9722a3daafe3b4186f6b6457e060405160405180910390a35050565b6000808260000180549050905060008114611bd05782600001600182611b5e9190613e7b565b81548110611b95577f4e487b7100000000000000000000000000000000000000000000000000000000600052603260045260246000fd5b9060005260206000200160000160049054906101000a90047bffffffffffffffffffffffffffffffffffffffffffffffffffffffff16611bd3565b60005b7bffffffffffffffffffffffffffffffffffffffffffffffffffffffff16915050919050565b8173ffffffffffffffffffffffffffffffffffffffff168373ffffffffffffffffffffffffffffffffffffffff161415611c68576040517f08c379a0000000000000000000000000000000000000000000000000000000008152600401611c5f90613ad7565b60405180910390fd5b80600560008573ffffffffffffffffffffffffffffffffffffffff1673ffffffffffffffffffffffffffffffffffffffff16815260200190815260200160002060008473ffffffffffffffffffffffffffffffffffffffff1673ffffffffffffffffffffffffffffffffffffffff16815260200190815260200160002060006101000a81548160ff0219169083151502179055508173ffffffffffffffffffffffffffffffffffffffff168373ffffffffffffffffffffffffffffffffffffffff167f17307eab39ab6107e8899845ad3d59bd9653f200f220920489ca2b5937696c3183604051611d5991906138a2565b60405180910390a3505050565b611d718484846113f7565b611d7d84848484612318565b611dbc576040517f08c379a0000000000000000000000000000000000000000000000000000000008152600401611db390613a37565b60405180910390fd5b50505050565b6000611dd5611dcf61165e565b836124af565b9050919050565b6000806000611ded878787876124e2565b91509150611dfa816125ef565b8192505050949350505050565b600080600a60008473ffffffffffffffffffffffffffffffffffffffff1673ffffffffffffffffffffffffffffffffffffffff1681526020019081526020016000209050611e548161191c565b9150611e5f8161192a565b50919050565b606060405180602001604052806000815250905090565b60606000821415611ec4576040518060400160405280600181526020017f30000000000000000000000000000000000000000000000000000000000000008152509050612024565b600082905060005b60008214611ef6578080611edf90613fdf565b915050600a82611eef9190613e4a565b9150611ecc565b60008167ffffffffffffffff811115611f38577f4e487b7100000000000000000000000000000000000000000000000000000000600052604160045260246000fd5b6040519080825280601f01601f191660200182016040528015611f6a5781602001600182028036833780820191505090505b5090505b6000851461201d57600182611f839190613e7b565b9150600a85611f929190614032565b6030611f9e9190613df4565b60f81b818381518110611fda577f4e487b7100000000000000000000000000000000000000000000000000000000600052603260045260246000fd5b60200101907effffffffffffffffffffffffffffffffffffffffffffffffffffffffffffff1916908160001a905350600a856120169190613e4a565b9450611f6e565b8093505050505b919050565b505050565b612039838383612940565b505050565b6000838383463060405160200161205995949392919061391d565b6040516020818303038152906040528051906020012090509392505050565b600060028284186120899190613e4a565b8284166120969190613df4565b905092915050565b6120a8838361295c565b6120b56000848484612318565b6120f4576040517f08c379a00000000000000000000000000000000000000000000000000000000081526004016120eb90613a37565b60405180910390fd5b505050565b600061210482610ad8565b9050919050565b8173ffffffffffffffffffffffffffffffffffffffff168373ffffffffffffffffffffffffffffffffffffffff16141580156121475750600081115b1561231357600073ffffffffffffffffffffffffffffffffffffffff168373ffffffffffffffffffffffffffffffffffffffff161461222f576000806121d8612b3684600860008973ffffffffffffffffffffffffffffffffffffffff1673ffffffffffffffffffffffffffffffffffffffff168152602001908152602001600020612b4c9092919063ffffffff16565b915091508473ffffffffffffffffffffffffffffffffffffffff167fdec2bacdd2f05b59de34da9b523dff8be42e5e38e818c82fdb0bae774387a7248383604051612224929190613d32565b60405180910390a250505b600073ffffffffffffffffffffffffffffffffffffffff168273ffffffffffffffffffffffffffffffffffffffff1614612312576000806122bb612b7a84600860008873ffffffffffffffffffffffffffffffffffffffff1673ffffffffffffffffffffffffffffffffffffffff168152602001908152602001600020612b4c9092919063ffffffff16565b915091508373ffffffffffffffffffffffffffffffffffffffff167fdec2bacdd2f05b59de34da9b523dff8be42e5e38e818c82fdb0bae774387a7248383604051612307929190613d32565b60405180910390a250505b5b505050565b60006123398473ffffffffffffffffffffffffffffffffffffffff16612b90565b156124a2578373ffffffffffffffffffffffffffffffffffffffff1663150b7a02612362611258565b8786866040518563ffffffff1660e01b81526004016123849493929190613856565b602060405180830381600087803b15801561239e57600080fd5b505af19250505080156123cf57506040513d601f19601f820116820180604052508101906123cc91906132d8565b60015b612452573d80600081146123ff576040519150601f19603f3d011682016040523d82523d6000602084013e612404565b606091505b5060008151141561244a576040517f08c379a000000000000000000000000000000000000000000000000000000000815260040161244190613a37565b60405180910390fd5b805181602001fd5b63150b7a0260e01b7bffffffffffffffffffffffffffffffffffffffffffffffffffffffff1916817bffffffffffffffffffffffffffffffffffffffffffffffffffffffff1916149150506124a7565b600190505b949350505050565b600082826040516020016124c4929190613804565b60405160208183030381529060405280519060200120905092915050565b6000807f7fffffffffffffffffffffffffffffff5d576e7357a4501ddfe92f46681b20a08360001c111561251d5760006003915091506125e6565b601b8560ff16141580156125355750601c8560ff1614155b156125475760006004915091506125e6565b60006001878787876040516000815260200160405260405161256c9493929190613970565b6020604051602081039080840390855afa15801561258e573d6000803e3d6000fd5b505050602060405103519050600073ffffffffffffffffffffffffffffffffffffffff168173ffffffffffffffffffffffffffffffffffffffff1614156125dd576000600192509250506125e6565b80600092509250505b94509492505050565b60006004811115612629577f4e487b7100000000000000000000000000000000000000000000000000000000600052602160045260246000fd5b816004811115612662577f4e487b7100000000000000000000000000000000000000000000000000000000600052602160045260246000fd5b141561266d5761293d565b600160048111156126a7577f4e487b7100000000000000000000000000000000000000000000000000000000600052602160045260246000fd5b8160048111156126e0577f4e487b7100000000000000000000000000000000000000000000000000000000600052602160045260246000fd5b1415612721576040517f08c379a0000000000000000000000000000000000000000000000000000000008152600401612718906139d7565b60405180910390fd5b6002600481111561275b577f4e487b7100000000000000000000000000000000000000000000000000000000600052602160045260246000fd5b816004811115612794577f4e487b7100000000000000000000000000000000000000000000000000000000600052602160045260246000fd5b14156127d5576040517f08c379a00000000000000000000000000000000000000000000000000000000081526004016127cc90613a17565b60405180910390fd5b6003600481111561280f577f4e487b7100000000000000000000000000000000000000000000000000000000600052602160045260246000fd5b816004811115612848577f4e487b7100000000000000000000000000000000000000000000000000000000600052602160045260246000fd5b1415612889576040517f08c379a000000000000000000000000000000000000000000000000000000000815260040161288090613af7565b60405180910390fd5b6004808111156128c2577f4e487b7100000000000000000000000000000000000000000000000000000000600052602160045260246000fd5b8160048111156128fb577f4e487b7100000000000000000000000000000000000000000000000000000000600052602160045260246000fd5b141561293c576040517f08c379a000000000000000000000000000000000000000000000000000000000815260040161293390613bf7565b60405180910390fd5b5b50565b61294c83836001612bb3565b612957838383612c73565b505050565b600073ffffffffffffffffffffffffffffffffffffffff168273ffffffffffffffffffffffffffffffffffffffff1614156129cc576040517f08c379a00000000000000000000000000000000000000000000000000000000081526004016129c390613c17565b60405180910390fd5b6129d5816111ec565b15612a15576040517f08c379a0000000000000000000000000000000000000000000000000000000008152600401612a0c90613a97565b60405180910390fd5b612a2160008383612029565b6001600360008473ffffffffffffffffffffffffffffffffffffffff1673ffffffffffffffffffffffffffffffffffffffff1681526020019081526020016000206000828254612a719190613df4565b92505081905550816002600083815260200190815260200160002060006101000a81548173ffffffffffffffffffffffffffffffffffffffff021916908373ffffffffffffffffffffffffffffffffffffffff160217905550808273ffffffffffffffffffffffffffffffffffffffff16600073ffffffffffffffffffffffffffffffffffffffff167fddf252ad1be2c89b69c2b068fc378daa952ba7f163c4a11628f55a4df523b3ef60405160405180910390a4612b326000838361202e565b5050565b60008183612b449190613e7b565b905092915050565b600080612b6e85612b69612b5f88611b38565b868863ffffffff16565b612c78565b91509150935093915050565b60008183612b889190613df4565b905092915050565b6000808273ffffffffffffffffffffffffffffffffffffffff163b119050919050565b600073ffffffffffffffffffffffffffffffffffffffff168373ffffffffffffffffffffffffffffffffffffffff161415612c0357612c00612b7a826009612b4c9092919063ffffffff16565b50505b600073ffffffffffffffffffffffffffffffffffffffff168273ffffffffffffffffffffffffffffffffffffffff161415612c5357612c50612b36826009612b4c9092919063ffffffff16565b50505b612c6e612c5f846109a3565b612c68846109a3565b8361210b565b505050565b505050565b6000806000846000018054905090506000612c9286611b38565b9050600082118015612d0e57504386600001600184612cb19190613e7b565b81548110612ce8577f4e487b7100000000000000000000000000000000000000000000000000000000600052603260045260246000fd5b9060005260206000200160000160009054906101000a900463ffffffff1663ffffffff16145b15612dc457612d1c85612ec6565b86600001600184612d2d9190613e7b565b81548110612d64577f4e487b7100000000000000000000000000000000000000000000000000000000600052603260045260246000fd5b9060005260206000200160000160046101000a8154817bffffffffffffffffffffffffffffffffffffffffffffffffffffffff02191690837bffffffffffffffffffffffffffffffffffffffffffffffffffffffff160217905550612eb7565b856000016040518060400160405280612ddc43612f31565b63ffffffff168152602001612df088612ec6565b7bffffffffffffffffffffffffffffffffffffffffffffffffffffffff168152509080600181540180825580915050600190039060005260206000200160009091909190915060008201518160000160006101000a81548163ffffffff021916908363ffffffff16021790555060208201518160000160046101000a8154817bffffffffffffffffffffffffffffffffffffffffffffffffffffffff02191690837bffffffffffffffffffffffffffffffffffffffffffffffffffffffff16021790555050505b80859350935050509250929050565b60007bffffffffffffffffffffffffffffffffffffffffffffffffffffffff8016821115612f29576040517f08c379a0000000000000000000000000000000000000000000000000000000008152600401612f2090613c77565b60405180910390fd5b819050919050565b600063ffffffff8016821115612f7c576040517f08c379a0000000000000000000000000000000000000000000000000000000008152600401612f7390613cf7565b60405180910390fd5b819050919050565b6000612f97612f9284613d80565b613d5b565b905082815260208101848484011115612faf57600080fd5b612fba848285613f3a565b509392505050565b600081359050612fd1816147e3565b92915050565b600081359050612fe6816147fa565b92915050565b600081359050612ffb81614811565b92915050565b60008135905061301081614828565b92915050565b60008151905061302581614828565b92915050565b600082601f83011261303c57600080fd5b813561304c848260208601612f84565b91505092915050565b6000813590506130648161483f565b92915050565b60008135905061307981614856565b92915050565b60006020828403121561309157600080fd5b600061309f84828501612fc2565b91505092915050565b600080604083850312156130bb57600080fd5b60006130c985828601612fc2565b92505060206130da85828601612fc2565b9150509250929050565b6000806000606084860312156130f957600080fd5b600061310786828701612fc2565b935050602061311886828701612fc2565b925050604061312986828701613055565b9150509250925092565b6000806000806080858703121561314957600080fd5b600061315787828801612fc2565b945050602061316887828801612fc2565b935050604061317987828801613055565b925050606085013567ffffffffffffffff81111561319657600080fd5b6131a28782880161302b565b91505092959194509250565b600080604083850312156131c157600080fd5b60006131cf85828601612fc2565b92505060206131e085828601612fd7565b9150509250929050565b600080604083850312156131fd57600080fd5b600061320b85828601612fc2565b925050602061321c85828601613055565b9150509250929050565b60008060008060008060c0878903121561323f57600080fd5b600061324d89828a01612fc2565b965050602061325e89828a01613055565b955050604061326f89828a01613055565b945050606061328089828a0161306a565b935050608061329189828a01612fec565b92505060a06132a289828a01612fec565b9150509295509295509295565b6000602082840312156132c157600080fd5b60006132cf84828501613001565b91505092915050565b6000602082840312156132ea57600080fd5b60006132f884828501613016565b91505092915050565b60006020828403121561331357600080fd5b600061332184828501613055565b91505092915050565b61333381613eaf565b82525050565b61334281613ec1565b82525050565b61335181613ecd565b82525050565b61336861336382613ecd565b614028565b82525050565b600061337982613db1565b6133838185613dc7565b9350613393818560208601613f49565b61339c8161411f565b840191505092915050565b60006133b282613dbc565b6133bc8185613dd8565b93506133cc818560208601613f49565b6133d58161411f565b840191505092915050565b60006133eb82613dbc565b6133f58185613de9565b9350613405818560208601613f49565b80840191505092915050565b600061341e601883613dd8565b915061342982614130565b602082019050919050565b6000613441601483613dd8565b915061344c82614159565b602082019050919050565b6000613464601f83613dd8565b915061346f82614182565b602082019050919050565b6000613487603283613dd8565b9150613492826141ab565b604082019050919050565b60006134aa602683613dd8565b91506134b5826141fa565b604082019050919050565b60006134cd602583613dd8565b91506134d882614249565b604082019050919050565b60006134f0601c83613dd8565b91506134fb82614298565b602082019050919050565b6000613513600283613de9565b915061351e826142c1565b600282019050919050565b6000613536602483613dd8565b9150613541826142ea565b604082019050919050565b6000613559601983613dd8565b915061356482614339565b602082019050919050565b600061357c602283613dd8565b915061358782614362565b604082019050919050565b600061359f602c83613dd8565b91506135aa826143b1565b604082019050919050565b60006135c2602083613dd8565b91506135cd82614400565b602082019050919050565b60006135e5601883613dd8565b91506135f082614429565b602082019050919050565b6000613608603883613dd8565b915061361382614452565b604082019050919050565b600061362b602a83613dd8565b9150613636826144a1565b604082019050919050565b600061364e602983613dd8565b9150613659826144f0565b604082019050919050565b6000613671601a83613dd8565b915061367c8261453f565b602082019050919050565b6000613694602283613dd8565b915061369f82614568565b604082019050919050565b60006136b7602083613dd8565b91506136c2826145b7565b602082019050919050565b60006136da602c83613dd8565b91506136e5826145e0565b604082019050919050565b60006136fd602083613dd8565b91506137088261462f565b602082019050919050565b6000613720602783613dd8565b915061372b82614658565b604082019050919050565b6000613743602f83613dd8565b915061374e826146a7565b604082019050919050565b6000613766602183613dd8565b9150613771826146f6565b604082019050919050565b6000613789603183613dd8565b915061379482614745565b604082019050919050565b60006137ac602683613dd8565b91506137b782614794565b604082019050919050565b6137cb81613f23565b82525050565b6137da81613f2d565b82525050565b60006137ec82856133e0565b91506137f882846133e0565b91508190509392505050565b600061380f82613506565b915061381b8285613357565b60208201915061382b8284613357565b6020820191508190509392505050565b6000602082019050613850600083018461332a565b92915050565b600060808201905061386b600083018761332a565b613878602083018661332a565b61388560408301856137c2565b8181036060830152613897818461336e565b905095945050505050565b60006020820190506138b76000830184613339565b92915050565b60006020820190506138d26000830184613348565b92915050565b60006080820190506138ed6000830187613348565b6138fa602083018661332a565b61390760408301856137c2565b61391460608301846137c2565b95945050505050565b600060a0820190506139326000830188613348565b61393f6020830187613348565b61394c6040830186613348565b61395960608301856137c2565b613966608083018461332a565b9695505050505050565b60006080820190506139856000830187613348565b61399260208301866137d1565b61399f6040830185613348565b6139ac6060830184613348565b95945050505050565b600060208201905081810360008301526139cf81846133a7565b905092915050565b600060208201905081810360008301526139f081613411565b9050919050565b60006020820190508181036000830152613a1081613434565b9050919050565b60006020820190508181036000830152613a3081613457565b9050919050565b60006020820190508181036000830152613a508161347a565b9050919050565b60006020820190508181036000830152613a708161349d565b9050919050565b60006020820190508181036000830152613a90816134c0565b9050919050565b60006020820190508181036000830152613ab0816134e3565b9050919050565b60006020820190508181036000830152613ad081613529565b9050919050565b60006020820190508181036000830152613af08161354c565b9050919050565b60006020820190508181036000830152613b108161356f565b9050919050565b60006020820190508181036000830152613b3081613592565b9050919050565b60006020820190508181036000830152613b50816135b5565b9050919050565b60006020820190508181036000830152613b70816135d8565b9050919050565b60006020820190508181036000830152613b90816135fb565b9050919050565b60006020820190508181036000830152613bb08161361e565b9050919050565b60006020820190508181036000830152613bd081613641565b9050919050565b60006020820190508181036000830152613bf081613664565b9050919050565b60006020820190508181036000830152613c1081613687565b9050919050565b60006020820190508181036000830152613c30816136aa565b9050919050565b60006020820190508181036000830152613c50816136cd565b9050919050565b60006020820190508181036000830152613c70816136f0565b9050919050565b60006020820190508181036000830152613c9081613713565b9050919050565b60006020820190508181036000830152613cb081613736565b9050919050565b60006020820190508181036000830152613cd081613759565b9050919050565b60006020820190508181036000830152613cf08161377c565b9050919050565b60006020820190508181036000830152613d108161379f565b9050919050565b6000602082019050613d2c60008301846137c2565b92915050565b6000604082019050613d4760008301856137c2565b613d5460208301846137c2565b9392505050565b6000613d65613d76565b9050613d718282613fae565b919050565b6000604051905090565b600067ffffffffffffffff821115613d9b57613d9a6140f0565b5b613da48261411f565b9050602081019050919050565b600081519050919050565b600081519050919050565b600082825260208201905092915050565b600082825260208201905092915050565b600081905092915050565b6000613dff82613f23565b9150613e0a83613f23565b9250827fffffffffffffffffffffffffffffffffffffffffffffffffffffffffffffffff03821115613e3f57613e3e614063565b5b828201905092915050565b6000613e5582613f23565b9150613e6083613f23565b925082613e7057613e6f614092565b5b828204905092915050565b6000613e8682613f23565b9150613e9183613f23565b925082821015613ea457613ea3614063565b5b828203905092915050565b6000613eba82613f03565b9050919050565b60008115159050919050565b6000819050919050565b60007fffffffff0000000000000000000000000000000000000000000000000000000082169050919050565b600073ffffffffffffffffffffffffffffffffffffffff82169050919050565b6000819050919050565b600060ff82169050919050565b82818337600083830152505050565b60005b83811015613f67578082015181840152602081019050613f4c565b83811115613f76576000848401525b50505050565b60006002820490506001821680613f9457607f821691505b60208210811415613fa857613fa76140c1565b5b50919050565b613fb78261411f565b810181811067ffffffffffffffff82111715613fd657613fd56140f0565b5b80604052505050565b6000613fea82613f23565b91507fffffffffffffffffffffffffffffffffffffffffffffffffffffffffffffffff82141561401d5761401c614063565b5b600182019050919050565b6000819050919050565b600061403d82613f23565b915061404883613f23565b92508261405857614057614092565b5b828206905092915050565b7f4e487b7100000000000000000000000000000000000000000000000000000000600052601160045260246000fd5b7f4e487b7100000000000000000000000000000000000000000000000000000000600052601260045260246000fd5b7f4e487b7100000000000000000000000000000000000000000000000000000000600052602260045260246000fd5b7f4e487b7100000000000000000000000000000000000000000000000000000000600052604160045260246000fd5b6000601f19601f8301169050919050565b7f45434453413a20696e76616c6964207369676e61747572650000000000000000600082015250565b7f566f7465733a20696e76616c6964206e6f6e6365000000000000000000000000600082015250565b7f45434453413a20696e76616c6964207369676e6174757265206c656e67746800600082015250565b7f4552433732313a207472616e7366657220746f206e6f6e20455243373231526560008201527f63656976657220696d706c656d656e7465720000000000000000000000000000602082015250565b7f4f776e61626c653a206e6577206f776e657220697320746865207a65726f206160008201527f6464726573730000000000000000000000000000000000000000000000000000602082015250565b7f4552433732313a207472616e736665722066726f6d20696e636f72726563742060008201527f6f776e6572000000000000000000000000000000000000000000000000000000602082015250565b7f4552433732313a20746f6b656e20616c7265616479206d696e74656400000000600082015250565b7f1901000000000000000000000000000000000000000000000000000000000000600082015250565b7f4552433732313a207472616e7366657220746f20746865207a65726f2061646460008201527f7265737300000000000000000000000000000000000000000000000000000000602082015250565b7f4552433732313a20617070726f766520746f2063616c6c657200000000000000600082015250565b7f45434453413a20696e76616c6964207369676e6174757265202773272076616c60008201527f7565000000000000000000000000000000000000000000000000000000000000602082015250565b7f4552433732313a206f70657261746f7220717565727920666f72206e6f6e657860008201527f697374656e7420746f6b656e0000000000000000000000000000000000000000602082015250565b7f436865636b706f696e74733a20626c6f636b206e6f7420796574206d696e6564600082015250565b7f566f7465733a207369676e617475726520657870697265640000000000000000600082015250565b7f4552433732313a20617070726f76652063616c6c6572206973206e6f74206f7760008201527f6e6572206e6f7220617070726f76656420666f7220616c6c0000000000000000602082015250565b7f4552433732313a2062616c616e636520717565727920666f7220746865207a6560008201527f726f206164647265737300000000000000000000000000000000000000000000602082015250565b7f4552433732313a206f776e657220717565727920666f72206e6f6e657869737460008201527f656e7420746f6b656e0000000000000000000000000000000000000000000000602082015250565b7f566f7465733a20626c6f636b206e6f7420796574206d696e6564000000000000600082015250565b7f45434453413a20696e76616c6964207369676e6174757265202776272076616c60008201527f7565000000000000000000000000000000000000000000000000000000000000602082015250565b7f4552433732313a206d696e7420746f20746865207a65726f2061646472657373600082015250565b7f4552433732313a20617070726f76656420717565727920666f72206e6f6e657860008201527f697374656e7420746f6b656e0000000000000000000000000000000000000000602082015250565b7f4f776e61626c653a2063616c6c6572206973206e6f7420746865206f776e6572600082015250565b7f53616665436173743a2076616c756520646f65736e27742066697420696e203260008201527f3234206269747300000000000000000000000000000000000000000000000000602082015250565b7f4552433732314d657461646174613a2055524920717565727920666f72206e6f60008201527f6e6578697374656e7420746f6b656e0000000000000000000000000000000000602082015250565b7f4552433732313a20617070726f76616c20746f2063757272656e74206f776e6560008201527f7200000000000000000000000000000000000000000000000000000000000000602082015250565b7f4552433732313a207472616e736665722063616c6c6572206973206e6f74206f60008201527f776e6572206e6f7220617070726f766564000000000000000000000000000000602082015250565b7f53616665436173743a2076616c756520646f65736e27742066697420696e203360008201527f3220626974730000000000000000000000000000000000000000000000000000602082015250565b6147ec81613eaf565b81146147f757600080fd5b50565b61480381613ec1565b811461480e57600080fd5b50565b61481a81613ecd565b811461482557600080fd5b50565b61483181613ed7565b811461483c57600080fd5b50565b61484881613f23565b811461485357600080fd5b50565b61485f81613f2d565b811461486a57600080fd5b5056fea2646970667358221220e0cea3b4fc113c3a5b5b85755bb808c140faaa64ae948306fbcff04aa81c468c64736f6c63430008040033",
  "linkReferences": {},
  "deployedLinkReferences": {}
}