{
  "_format": "hh-sol-artifact-1",
  "contractName": "Governance",
  "sourceName": "contracts/Governance.sol",
  "abi": [
    {
      "inputs": [
        {
          "internalType": "contract IVotes",
          "name": "_token",
          "type": "address"
        },
        {
          "internalType": "string",
          "name": "name",
          "type": "string"
        }
      ],
      "stateMutability": "nonpayable",
      "type": "constructor"
    },
    {
      "inputs": [],
      "name": "Empty",
      "type": "error"
    },
    {
      "anonymous": false,
      "inputs": [
        {
          "indexed": false,
          "internalType": "uint256",
          "name": "proposalId",
          "type": "uint256"
        }
      ],
      "name": "ProposalCanceled",
      "type": "event"
    },
    {
      "anonymous": false,
      "inputs": [
        {
          "indexed": false,
          "internalType": "uint256",
          "name": "proposalId",
          "type": "uint256"
        },
        {
          "indexed": false,
          "internalType": "address",
          "name": "proposer",
          "type": "address"
        },
        {
          "indexed": false,
          "internalType": "address[]",
          "name": "targets",
          "type": "address[]"
        },
        {
          "indexed": false,
          "internalType": "uint256[]",
          "name": "values",
          "type": "uint256[]"
        },
        {
          "indexed": false,
          "internalType": "string[]",
          "name": "signatures",
          "type": "string[]"
        },
        {
          "indexed": false,
          "internalType": "bytes[]",
          "name": "calldatas",
          "type": "bytes[]"
        },
        {
          "indexed": false,
          "internalType": "uint256",
          "name": "startBlock",
          "type": "uint256"
        },
        {
          "indexed": false,
          "internalType": "uint256",
          "name": "endBlock",
          "type": "uint256"
        },
        {
          "indexed": false,
          "internalType": "string",
          "name": "description",
          "type": "string"
        }
      ],
      "name": "ProposalCreated",
      "type": "event"
    },
    {
      "anonymous": false,
      "inputs": [
        {
          "indexed": false,
          "internalType": "uint256",
          "name": "proposalId",
          "type": "uint256"
        }
      ],
      "name": "ProposalExecuted",
      "type": "event"
    },
    {
      "anonymous": false,
      "inputs": [
        {
          "indexed": true,
          "internalType": "address",
          "name": "voter",
          "type": "address"
        },
        {
          "indexed": false,
          "internalType": "uint256",
          "name": "proposalId",
          "type": "uint256"
        },
        {
          "indexed": false,
          "internalType": "uint8",
          "name": "support",
          "type": "uint8"
        },
        {
          "indexed": false,
          "internalType": "uint256",
          "name": "weight",
          "type": "uint256"
        },
        {
          "indexed": false,
          "internalType": "string",
          "name": "reason",
          "type": "string"
        }
      ],
      "name": "VoteCast",
      "type": "event"
    },
    {
      "anonymous": false,
      "inputs": [
        {
          "indexed": true,
          "internalType": "address",
          "name": "voter",
          "type": "address"
        },
        {
          "indexed": false,
          "internalType": "uint256",
          "name": "proposalId",
          "type": "uint256"
        },
        {
          "indexed": false,
          "internalType": "uint8",
          "name": "support",
          "type": "uint8"
        },
        {
          "indexed": false,
          "internalType": "uint256",
          "name": "weight",
          "type": "uint256"
        },
        {
          "indexed": false,
          "internalType": "string",
          "name": "reason",
          "type": "string"
        },
        {
          "indexed": false,
          "internalType": "bytes",
          "name": "params",
          "type": "bytes"
        }
      ],
      "name": "VoteCastWithParams",
      "type": "event"
    },
    {
      "inputs": [],
      "name": "BALLOT_TYPEHASH",
      "outputs": [
        {
          "internalType": "bytes32",
          "name": "",
          "type": "bytes32"
        }
      ],
      "stateMutability": "view",
      "type": "function"
    },
    {
      "inputs": [],
      "name": "COUNTING_MODE",
      "outputs": [
        {
          "internalType": "string",
          "name": "",
          "type": "string"
        }
      ],
      "stateMutability": "pure",
      "type": "function"
    },
    {
      "inputs": [],
      "name": "EXTENDED_BALLOT_TYPEHASH",
      "outputs": [
        {
          "internalType": "bytes32",
          "name": "",
          "type": "bytes32"
        }
      ],
      "stateMutability": "view",
      "type": "function"
    },
    {
      "inputs": [
        {
          "internalType": "uint256",
          "name": "proposalId",
          "type": "uint256"
        },
        {
          "internalType": "uint8",
          "name": "support",
          "type": "uint8"
        }
      ],
      "name": "castVote",
      "outputs": [
        {
          "internalType": "uint256",
          "name": "",
          "type": "uint256"
        }
      ],
      "stateMutability": "nonpayable",
      "type": "function"
    },
    {
      "inputs": [
        {
          "internalType": "uint256",
          "name": "proposalId",
          "type": "uint256"
        },
        {
          "internalType": "uint8",
          "name": "support",
          "type": "uint8"
        },
        {
          "internalType": "uint8",
          "name": "v",
          "type": "uint8"
        },
        {
          "internalType": "bytes32",
          "name": "r",
          "type": "bytes32"
        },
        {
          "internalType": "bytes32",
          "name": "s",
          "type": "bytes32"
        }
      ],
      "name": "castVoteBySig",
      "outputs": [
        {
          "internalType": "uint256",
          "name": "",
          "type": "uint256"
        }
      ],
      "stateMutability": "nonpayable",
      "type": "function"
    },
    {
      "inputs": [
        {
          "internalType": "uint256",
          "name": "proposalId",
          "type": "uint256"
        },
        {
          "internalType": "uint8",
          "name": "support",
          "type": "uint8"
        },
        {
          "internalType": "string",
          "name": "reason",
          "type": "string"
        }
      ],
      "name": "castVoteWithReason",
      "outputs": [
        {
          "internalType": "uint256",
          "name": "",
          "type": "uint256"
        }
      ],
      "stateMutability": "nonpayable",
      "type": "function"
    },
    {
      "inputs": [
        {
          "internalType": "uint256",
          "name": "proposalId",
          "type": "uint256"
        },
        {
          "internalType": "uint8",
          "name": "support",
          "type": "uint8"
        },
        {
          "internalType": "string",
          "name": "reason",
          "type": "string"
        },
        {
          "internalType": "bytes",
          "name": "params",
          "type": "bytes"
        }
      ],
      "name": "castVoteWithReasonAndParams",
      "outputs": [
        {
          "internalType": "uint256",
          "name": "",
          "type": "uint256"
        }
      ],
      "stateMutability": "nonpayable",
      "type": "function"
    },
    {
      "inputs": [
        {
          "internalType": "uint256",
          "name": "proposalId",
          "type": "uint256"
        },
        {
          "internalType": "uint8",
          "name": "support",
          "type": "uint8"
        },
        {
          "internalType": "string",
          "name": "reason",
          "type": "string"
        },
        {
          "internalType": "bytes",
          "name": "params",
          "type": "bytes"
        },
        {
          "internalType": "uint8",
          "name": "v",
          "type": "uint8"
        },
        {
          "internalType": "bytes32",
          "name": "r",
          "type": "bytes32"
        },
        {
          "internalType": "bytes32",
          "name": "s",
          "type": "bytes32"
        }
      ],
      "name": "castVoteWithReasonAndParamsBySig",
      "outputs": [
        {
          "internalType": "uint256",
          "name": "",
          "type": "uint256"
        }
      ],
      "stateMutability": "nonpayable",
      "type": "function"
    },
    {
      "inputs": [
        {
          "internalType": "address[]",
          "name": "targets",
          "type": "address[]"
        },
        {
          "internalType": "uint256[]",
          "name": "values",
          "type": "uint256[]"
        },
        {
          "internalType": "bytes[]",
          "name": "calldatas",
          "type": "bytes[]"
        },
        {
          "internalType": "bytes32",
          "name": "descriptionHash",
          "type": "bytes32"
        }
      ],
      "name": "execute",
      "outputs": [
        {
          "internalType": "uint256",
          "name": "",
          "type": "uint256"
        }
      ],
      "stateMutability": "payable",
      "type": "function"
    },
    {
      "inputs": [
        {
          "internalType": "address",
          "name": "account",
          "type": "address"
        },
        {
          "internalType": "uint256",
          "name": "blockNumber",
          "type": "uint256"
        }
      ],
      "name": "getVotes",
      "outputs": [
        {
          "internalType": "uint256",
          "name": "",
          "type": "uint256"
        }
      ],
      "stateMutability": "view",
      "type": "function"
    },
    {
      "inputs": [
        {
          "internalType": "address",
          "name": "account",
          "type": "address"
        },
        {
          "internalType": "uint256",
          "name": "blockNumber",
          "type": "uint256"
        },
        {
          "internalType": "bytes",
          "name": "params",
          "type": "bytes"
        }
      ],
      "name": "getVotesWithParams",
      "outputs": [
        {
          "internalType": "uint256",
          "name": "",
          "type": "uint256"
        }
      ],
      "stateMutability": "view",
      "type": "function"
    },
    {
      "inputs": [
        {
          "internalType": "uint256",
          "name": "proposalId",
          "type": "uint256"
        },
        {
          "internalType": "address",
          "name": "account",
          "type": "address"
        }
      ],
      "name": "hasVoted",
      "outputs": [
        {
          "internalType": "bool",
          "name": "",
          "type": "bool"
        }
      ],
      "stateMutability": "view",
      "type": "function"
    },
    {
      "inputs": [
        {
          "internalType": "address[]",
          "name": "targets",
          "type": "address[]"
        },
        {
          "internalType": "uint256[]",
          "name": "values",
          "type": "uint256[]"
        },
        {
          "internalType": "bytes[]",
          "name": "calldatas",
          "type": "bytes[]"
        },
        {
          "internalType": "bytes32",
          "name": "descriptionHash",
          "type": "bytes32"
        }
      ],
      "name": "hashProposal",
      "outputs": [
        {
          "internalType": "uint256",
          "name": "",
          "type": "uint256"
        }
      ],
      "stateMutability": "pure",
      "type": "function"
    },
    {
      "inputs": [],
      "name": "name",
      "outputs": [
        {
          "internalType": "string",
          "name": "",
          "type": "string"
        }
      ],
      "stateMutability": "view",
      "type": "function"
    },
    {
      "inputs": [
        {
          "internalType": "address",
          "name": "",
          "type": "address"
        },
        {
          "internalType": "address",
          "name": "",
          "type": "address"
        },
        {
          "internalType": "uint256[]",
          "name": "",
          "type": "uint256[]"
        },
        {
          "internalType": "uint256[]",
          "name": "",
          "type": "uint256[]"
        },
        {
          "internalType": "bytes",
          "name": "",
          "type": "bytes"
        }
      ],
      "name": "onERC1155BatchReceived",
      "outputs": [
        {
          "internalType": "bytes4",
          "name": "",
          "type": "bytes4"
        }
      ],
      "stateMutability": "nonpayable",
      "type": "function"
    },
    {
      "inputs": [
        {
          "internalType": "address",
          "name": "",
          "type": "address"
        },
        {
          "internalType": "address",
          "name": "",
          "type": "address"
        },
        {
          "internalType": "uint256",
          "name": "",
          "type": "uint256"
        },
        {
          "internalType": "uint256",
          "name": "",
          "type": "uint256"
        },
        {
          "internalType": "bytes",
          "name": "",
          "type": "bytes"
        }
      ],
      "name": "onERC1155Received",
      "outputs": [
        {
          "internalType": "bytes4",
          "name": "",
          "type": "bytes4"
        }
      ],
      "stateMutability": "nonpayable",
      "type": "function"
    },
    {
      "inputs": [
        {
          "internalType": "address",
          "name": "",
          "type": "address"
        },
        {
          "internalType": "address",
          "name": "",
          "type": "address"
        },
        {
          "internalType": "uint256",
          "name": "",
          "type": "uint256"
        },
        {
          "internalType": "bytes",
          "name": "",
          "type": "bytes"
        }
      ],
      "name": "onERC721Received",
      "outputs": [
        {
          "internalType": "bytes4",
          "name": "",
          "type": "bytes4"
        }
      ],
      "stateMutability": "nonpayable",
      "type": "function"
    },
    {
      "inputs": [
        {
          "internalType": "uint256",
          "name": "proposalId",
          "type": "uint256"
        }
      ],
      "name": "proposalDeadline",
      "outputs": [
        {
          "internalType": "uint256",
          "name": "",
          "type": "uint256"
        }
      ],
      "stateMutability": "view",
      "type": "function"
    },
    {
      "inputs": [
        {
          "internalType": "uint256",
          "name": "proposalId",
          "type": "uint256"
        }
      ],
      "name": "proposalSnapshot",
      "outputs": [
        {
          "internalType": "uint256",
          "name": "",
          "type": "uint256"
        }
      ],
      "stateMutability": "view",
      "type": "function"
    },
    {
      "inputs": [],
      "name": "proposalThreshold",
      "outputs": [
        {
          "internalType": "uint256",
          "name": "",
          "type": "uint256"
        }
      ],
      "stateMutability": "pure",
      "type": "function"
    },
    {
      "inputs": [
        {
          "internalType": "uint256",
          "name": "proposalId",
          "type": "uint256"
        }
      ],
      "name": "proposalVotes",
      "outputs": [
        {
          "internalType": "uint256",
          "name": "againstVotes",
          "type": "uint256"
        },
        {
          "internalType": "uint256",
          "name": "forVotes",
          "type": "uint256"
        },
        {
          "internalType": "uint256",
          "name": "abstainVotes",
          "type": "uint256"
        }
      ],
      "stateMutability": "view",
      "type": "function"
    },
    {
      "inputs": [
        {
          "internalType": "address[]",
          "name": "targets",
          "type": "address[]"
        },
        {
          "internalType": "uint256[]",
          "name": "values",
          "type": "uint256[]"
        },
        {
          "internalType": "bytes[]",
          "name": "calldatas",
          "type": "bytes[]"
        },
        {
          "internalType": "string",
          "name": "description",
          "type": "string"
        }
      ],
      "name": "propose",
      "outputs": [
        {
          "internalType": "uint256",
          "name": "",
          "type": "uint256"
        }
      ],
      "stateMutability": "nonpayable",
      "type": "function"
    },
    {
      "inputs": [
        {
          "internalType": "uint256",
          "name": "",
          "type": "uint256"
        }
      ],
      "name": "quorum",
      "outputs": [
        {
          "internalType": "uint256",
          "name": "",
          "type": "uint256"
        }
      ],
      "stateMutability": "pure",
      "type": "function"
    },
    {
      "inputs": [
        {
          "internalType": "address",
          "name": "target",
          "type": "address"
        },
        {
          "internalType": "uint256",
          "name": "value",
          "type": "uint256"
        },
        {
          "internalType": "bytes",
          "name": "data",
          "type": "bytes"
        }
      ],
      "name": "relay",
      "outputs": [],
      "stateMutability": "nonpayable",
      "type": "function"
    },
    {
      "inputs": [
        {
          "internalType": "uint256",
          "name": "proposalId",
          "type": "uint256"
        }
      ],
      "name": "state",
      "outputs": [
        {
          "internalType": "enum IGovernor.ProposalState",
          "name": "",
          "type": "uint8"
        }
      ],
      "stateMutability": "view",
      "type": "function"
    },
    {
      "inputs": [
        {
          "internalType": "bytes4",
          "name": "interfaceId",
          "type": "bytes4"
        }
      ],
      "name": "supportsInterface",
      "outputs": [
        {
          "internalType": "bool",
          "name": "",
          "type": "bool"
        }
      ],
      "stateMutability": "view",
      "type": "function"
    },
    {
      "inputs": [],
      "name": "token",
      "outputs": [
        {
          "internalType": "contract IVotes",
          "name": "",
          "type": "address"
        }
      ],
      "stateMutability": "view",
      "type": "function"
    },
    {
      "inputs": [],
      "name": "version",
      "outputs": [
        {
          "internalType": "string",
          "name": "",
          "type": "string"
        }
      ],
      "stateMutability": "view",
      "type": "function"
    },
    {
      "inputs": [],
      "name": "votingDelay",
      "outputs": [
        {
          "internalType": "uint256",
          "name": "",
          "type": "uint256"
        }
      ],
      "stateMutability": "pure",
      "type": "function"
    },
    {
      "inputs": [],
      "name": "votingPeriod",
      "outputs": [
        {
          "internalType": "uint256",
          "name": "",
          "type": "uint256"
        }
      ],
      "stateMutability": "pure",
      "type": "function"
    },
    {
      "stateMutability": "payable",
      "type": "receive"
    }
  ],
  "bytecode": "0x6101606040523480156200001257600080fd5b50604051620055a4380380620055a483398181016040528101906200003891906200030d565b8181806200004b6200015b60201b60201c565b60008280519060200120905060008280519060200120905060007f8b73c3c69bb8fe3d512ecc4cf759cc79239f7b179b0ffacaa9a75d522b39400f90508260e081815250508161010081815250504660a08181525050620000b48184846200019860201b60201c565b608081815250503073ffffffffffffffffffffffffffffffffffffffff1660c08173ffffffffffffffffffffffffffffffffffffffff1660601b815250508061012081815250505050505050806000908051906020019062000118929190620001d4565b50508073ffffffffffffffffffffffffffffffffffffffff166101408173ffffffffffffffffffffffffffffffffffffffff1660601b81525050505050620005dd565b60606040518060400160405280600181526020017f3100000000000000000000000000000000000000000000000000000000000000815250905090565b60008383834630604051602001620001b59594939291906200039a565b6040516020818303038152906040528051906020012090509392505050565b828054620001e290620004e8565b90600052602060002090601f01602090048101928262000206576000855562000252565b82601f106200022157805160ff191683800117855562000252565b8280016001018555821562000252579182015b828111156200025157825182559160200191906001019062000234565b5b50905062000261919062000265565b5090565b5b808211156200028057600081600090555060010162000266565b5090565b60006200029b620002958462000420565b620003f7565b905082815260208101848484011115620002b457600080fd5b620002c1848285620004b2565b509392505050565b600081519050620002da81620005c3565b92915050565b600082601f830112620002f257600080fd5b81516200030484826020860162000284565b91505092915050565b600080604083850312156200032157600080fd5b60006200033185828601620002c9565b925050602083015167ffffffffffffffff8111156200034f57600080fd5b6200035d85828601620002e0565b9150509250929050565b620003728162000456565b82525050565b62000383816200046a565b82525050565b6200039481620004a8565b82525050565b600060a082019050620003b1600083018862000378565b620003c0602083018762000378565b620003cf604083018662000378565b620003de606083018562000389565b620003ed608083018462000367565b9695505050505050565b60006200040362000416565b90506200041182826200051e565b919050565b6000604051905090565b600067ffffffffffffffff8211156200043e576200043d62000583565b5b6200044982620005b2565b9050602081019050919050565b6000620004638262000488565b9050919050565b6000819050919050565b6000620004818262000456565b9050919050565b600073ffffffffffffffffffffffffffffffffffffffff82169050919050565b6000819050919050565b60005b83811015620004d2578082015181840152602081019050620004b5565b83811115620004e2576000848401525b50505050565b600060028204905060018216806200050157607f821691505b6020821081141562000518576200051762000554565b5b50919050565b6200052982620005b2565b810181811067ffffffffffffffff821117156200054b576200054a62000583565b5b80604052505050565b7f4e487b7100000000000000000000000000000000000000000000000000000000600052602260045260246000fd5b7f4e487b7100000000000000000000000000000000000000000000000000000000600052604160045260246000fd5b6000601f19601f8301169050919050565b620005ce8162000474565b8114620005da57600080fd5b50565b60805160a05160c05160601c60e05161010051610120516101405160601c614f5f62000645600039600081816117750152611ea70152600061213601526000612178015260006121570152600061208c015260006120e20152600061210b0152614f5f6000f3fe6080604052600436106101d15760003560e01c80635f398a14116100f7578063c28bc2fa11610095578063eb9019d411610064578063eb9019d41461079f578063f23a6e61146107dc578063f8ce560a14610819578063fc0c546a1461085657610217565b8063c28bc2fa146106e3578063c59057e41461070c578063dd4e2ba514610749578063deaaa7cc1461077457610217565b80639a802a6d116100d15780639a802a6d14610601578063b58131b01461063e578063bc197c8114610669578063c01f9e37146106a657610217565b80635f398a141461054a5780637b3c71d3146105875780637d5e81e2146105c457610217565b80632fe3e2611161016f578063438596321161013e5780634385963214610466578063544ffc9c146104a357806354fd4d50146104e2578063567813881461050d57610217565b80632fe3e261146103965780633932abb1146103c15780633bccf4fd146103ec5780633e4f49e61461042957610217565b806306fdde03116101ab57806306fdde03146102c1578063150b7a02146102ec5780632656227d146103295780632d63f6931461035957610217565b806301ffc9a71461021c57806302a251a314610259578063034201811461028457610217565b36610217573073ffffffffffffffffffffffffffffffffffffffff166101f5610881565b73ffffffffffffffffffffffffffffffffffffffff161461021557600080fd5b005b600080fd5b34801561022857600080fd5b50610243600480360381019061023e91906133ba565b610889565b6040516102509190613e4e565b60405180910390f35b34801561026557600080fd5b5061026e6109ee565b60405161027b9190614239565b60405180910390f35b34801561029057600080fd5b506102ab60048036038101906102a691906135b1565b6109f8565b6040516102b89190614239565b60405180910390f35b3480156102cd57600080fd5b506102d6610add565b6040516102e39190613ff7565b60405180910390f35b3480156102f857600080fd5b50610313600480360381019061030e9190613033565b610b6f565b6040516103209190613fa6565b60405180910390f35b610343600480360381019061033e919061324c565b610b83565b6040516103509190614239565b60405180910390f35b34801561036557600080fd5b50610380600480360381019061037b91906133e3565b610d68565b60405161038d9190614239565b60405180910390f35b3480156103a257600080fd5b506103ab610dd6565b6040516103b89190613e69565b60405180910390f35b3480156103cd57600080fd5b506103d6610dfa565b6040516103e39190614239565b60405180910390f35b3480156103f857600080fd5b50610413600480360381019061040e9190613683565b610e03565b6040516104209190614239565b60405180910390f35b34801561043557600080fd5b50610450600480360381019061044b91906133e3565b610e8d565b60405161045d9190613fdc565b60405180910390f35b34801561047257600080fd5b5061048d60048036038101906104889190613435565b610fa2565b60405161049a9190613e4e565b60405180910390f35b3480156104af57600080fd5b506104ca60048036038101906104c591906133e3565b61100d565b6040516104d993929190614304565b60405180910390f35b3480156104ee57600080fd5b506104f7611045565b6040516105049190613ff7565b60405180910390f35b34801561051957600080fd5b50610534600480360381019061052f9190613471565b611082565b6040516105419190614239565b60405180910390f35b34801561055657600080fd5b50610571600480360381019061056c9190613519565b6110b3565b60405161057e9190614239565b60405180910390f35b34801561059357600080fd5b506105ae60048036038101906105a991906134ad565b61111d565b6040516105bb9190614239565b60405180910390f35b3480156105d057600080fd5b506105eb60048036038101906105e691906132f7565b611185565b6040516105f89190614239565b60405180910390f35b34801561060d57600080fd5b50610628600480360381019061062391906131e5565b6114b2565b6040516106359190614239565b60405180910390f35b34801561064a57600080fd5b506106536114c8565b6040516106609190614239565b60405180910390f35b34801561067557600080fd5b50610690600480360381019061068b9190612f74565b6114d1565b60405161069d9190613fa6565b60405180910390f35b3480156106b257600080fd5b506106cd60048036038101906106c891906133e3565b6114e6565b6040516106da9190614239565b60405180910390f35b3480156106ef57600080fd5b5061070a60048036038101906107059190613179565b611554565b005b34801561071857600080fd5b50610733600480360381019061072e919061324c565b61169a565b6040516107409190614239565b60405180910390f35b34801561075557600080fd5b5061075e6116d6565b60405161076b9190613ff7565b60405180910390f35b34801561078057600080fd5b50610789611713565b6040516107969190613e69565b60405180910390f35b3480156107ab57600080fd5b506107c660048036038101906107c1919061313d565b611737565b6040516107d39190614239565b60405180910390f35b3480156107e857600080fd5b5061080360048036038101906107fe91906130ae565b611753565b6040516108109190613fa6565b60405180910390f35b34801561082557600080fd5b50610840600480360381019061083b91906133e3565b611768565b60405161084d9190614239565b60405180910390f35b34801561086257600080fd5b5061086b611773565b6040516108789190613fc1565b60405180910390f35b600030905090565b6000639a802a6d60e01b630342018160e01b635f398a1460e01b7f79dd796f000000000000000000000000000000000000000000000000000000001818187bffffffffffffffffffffffffffffffffffffffffffffffffffffffff1916827bffffffffffffffffffffffffffffffffffffffffffffffffffffffff1916148061096f57507f79dd796f000000000000000000000000000000000000000000000000000000007bffffffffffffffffffffffffffffffffffffffffffffffffffffffff1916827bffffffffffffffffffffffffffffffffffffffffffffffffffffffff1916145b806109d757507f4e2312e0000000000000000000000000000000000000000000000000000000007bffffffffffffffffffffffffffffffffffffffffffffffffffffffff1916827bffffffffffffffffffffffffffffffffffffffffffffffffffffffff1916145b806109e757506109e682611797565b5b9050919050565b600061b2fa905090565b600080610a7b610a737fb3b3f3b703cd84ce352197dcff232b1b5d3cfb2025ce47cf04742d0651f1af888c8c8c8c604051610a34929190613d64565b60405180910390208b80519060200120604051602001610a58959493929190613f0e565b60405160208183030381529060405280519060200120611801565b86868661181b565b9050610ace8a828b8b8b8080601f016020809104026020016040519081016040528093929190818152602001838380828437600081840152601f19601f820116905080830192505050505050508a611846565b91505098975050505050505050565b606060008054610aec9061484b565b80601f0160208091040260200160405190810160405280929190818152602001828054610b189061484b565b8015610b655780601f10610b3a57610100808354040283529160200191610b65565b820191906000526020600020905b815481529060010190602001808311610b4857829003601f168201915b5050505050905090565b600063150b7a0260e01b9050949350505050565b600080610b928686868661169a565b90506000610b9f82610e8d565b905060046007811115610bdb577f4e487b7100000000000000000000000000000000000000000000000000000000600052602160045260246000fd5b816007811115610c14577f4e487b7100000000000000000000000000000000000000000000000000000000600052602160045260246000fd5b1480610c90575060056007811115610c55577f4e487b7100000000000000000000000000000000000000000000000000000000600052602160045260246000fd5b816007811115610c8e577f4e487b7100000000000000000000000000000000000000000000000000000000600052602160045260246000fd5b145b610ccf576040517f08c379a0000000000000000000000000000000000000000000000000000000008152600401610cc690614179565b60405180910390fd5b600180600084815260200190815260200160002060020160006101000a81548160ff0219169083151502179055507f712ae1383f79ac853f8d882153778e0260ef8f03b504e2866e0593e04d2b291f82604051610d2c9190614239565b60405180910390a1610d418288888888611a4f565b610d4e8288888888611b7f565b610d5b8288888888611d00565b8192505050949350505050565b6000610dc5600160008481526020019081526020016000206000016040518060200160405290816000820160009054906101000a900467ffffffffffffffff1667ffffffffffffffff1667ffffffffffffffff1681525050611d5b565b67ffffffffffffffff169050919050565b7fb3b3f3b703cd84ce352197dcff232b1b5d3cfb2025ce47cf04742d0651f1af8881565b60006001905090565b600080610e64610e5c7f150214d74d59b7d1e90c73fc22ef3d991dd0a76b046543d4d80ab92d2a50328f8989604051602001610e4193929190613ed7565b60405160208183030381529060405280519060200120611801565b86868661181b565b9050610e8187828860405180602001604052806000815250611d69565b91505095945050505050565b6000806001600084815260200190815260200160002090508060020160009054906101000a900460ff1615610ec6576007915050610f9d565b8060020160019054906101000a900460ff1615610ee7576002915050610f9d565b6000610ef284610d68565b90506000811415610f38576040517f08c379a0000000000000000000000000000000000000000000000000000000008152600401610f2f90614199565b60405180910390fd5b438110610f4a57600092505050610f9d565b6000610f55856114e6565b9050438110610f6a5760019350505050610f9d565b610f7385611d89565b8015610f845750610f8385611dd0565b5b15610f955760049350505050610f9d565b600393505050505b919050565b60006004600084815260200190815260200160002060030160008373ffffffffffffffffffffffffffffffffffffffff1673ffffffffffffffffffffffffffffffffffffffff16815260200190815260200160002060009054906101000a900460ff16905092915050565b600080600080600460008681526020019081526020016000209050806000015481600101548260020154935093509350509193909250565b60606040518060400160405280600181526020017f3100000000000000000000000000000000000000000000000000000000000000815250905090565b60008061108d611dfb565b90506110aa84828560405180602001604052806000815250611d69565b91505092915050565b6000806110be611dfb565b905061111187828888888080601f016020809104026020016040519081016040528093929190818152602001838380828437600081840152601f19601f8201169050808301925050505050505087611846565b91505095945050505050565b600080611128611dfb565b905061117a86828787878080601f016020809104026020016040519081016040528093929190818152602001838380828437600081840152601f19601f82011690508083019250505050505050611d69565b915050949350505050565b600061118f6114c8565b6111ac61119a611dfb565b6001436111a791906146db565b611737565b10156111ed576040517f08c379a00000000000000000000000000000000000000000000000000000000081526004016111e490614219565b60405180910390fd5b6000611202868686868051906020012061169a565b90508451865114611248576040517f08c379a000000000000000000000000000000000000000000000000000000000815260040161123f90614079565b60405180910390fd5b835186511461128c576040517f08c379a000000000000000000000000000000000000000000000000000000000815260040161128390614079565b60405180910390fd5b60008651116112d0576040517f08c379a00000000000000000000000000000000000000000000000000000000081526004016112c790614119565b60405180910390fd5b6000600160008381526020019081526020016000209050611330816000016040518060200160405290816000820160009054906101000a900467ffffffffffffffff1667ffffffffffffffff1667ffffffffffffffff1681525050611e03565b61136f576040517f08c379a0000000000000000000000000000000000000000000000000000000008152600401611366906141d9565b60405180910390fd5b600061138161137c610dfa565b611e1d565b61138a43611e1d565b611394919061469d565b905060006113a86113a36109ee565b611e1d565b826113b3919061469d565b90506113cb8284600001611e7490919063ffffffff16565b6113e18184600101611e7490919063ffffffff16565b7f7d84a6263ae0d98d3329bd7b46bb4e8d6f98cd35a7adb45c274c8b7fd5ebd5e08461140b611dfb565b8b8b8d5167ffffffffffffffff81111561144e577f4e487b7100000000000000000000000000000000000000000000000000000000600052604160045260246000fd5b60405190808252806020026020018201604052801561148157816020015b606081526020019060019003908161146c5790505b508c88888e60405161149b99989796959493929190614254565b60405180910390a183945050505050949350505050565b60006114bf848484611ea3565b90509392505050565b60006001905090565b600063bc197c8160e01b905095945050505050565b6000611543600160008481526020019081526020016000206001016040518060200160405290816000820160009054906101000a900467ffffffffffffffff1667ffffffffffffffff1667ffffffffffffffff1681525050611d5b565b67ffffffffffffffff169050919050565b61155c610881565b73ffffffffffffffffffffffffffffffffffffffff1661157a611dfb565b73ffffffffffffffffffffffffffffffffffffffff16146115d0576040517f08c379a00000000000000000000000000000000000000000000000000000000081526004016115c790614039565b60405180910390fd5b3073ffffffffffffffffffffffffffffffffffffffff166115ef610881565b73ffffffffffffffffffffffffffffffffffffffff1614611644576000611614611f59565b604051611622929190613d64565b604051809103902090505b806116386002611f66565b146116425761162d565b505b6116938483838080601f016020809104026020016040519081016040528093929190818152602001838380828437600081840152601f19601f8201169050808301925050505050505085612042565b5050505050565b6000848484846040516020016116b39493929190613df4565b6040516020818303038152906040528051906020012060001c9050949350505050565b60606040518060400160405280602081526020017f737570706f72743d627261766f2671756f72756d3d666f722c6162737461696e815250905090565b7f150214d74d59b7d1e90c73fc22ef3d991dd0a76b046543d4d80ab92d2a50328f81565b600061174b8383611746612071565b611ea3565b905092915050565b600063f23a6e6160e01b905095945050505050565b600060019050919050565b7f000000000000000000000000000000000000000000000000000000000000000081565b60007f01ffc9a7000000000000000000000000000000000000000000000000000000007bffffffffffffffffffffffffffffffffffffffffffffffffffffffff1916827bffffffffffffffffffffffffffffffffffffffffffffffffffffffff1916149050919050565b600061181461180e612088565b836121a2565b9050919050565b600080600061182c878787876121d5565b91509150611839816122e2565b8192505050949350505050565b60008060016000888152602001908152602001600020905060016007811115611898577f4e487b7100000000000000000000000000000000000000000000000000000000600052602160045260246000fd5b6118a188610e8d565b60078111156118d9577f4e487b7100000000000000000000000000000000000000000000000000000000600052602160045260246000fd5b14611919576040517f08c379a0000000000000000000000000000000000000000000000000000000008152600401611910906140f9565b60405180910390fd5b600061197887611968846000016040518060200160405290816000820160009054906101000a900467ffffffffffffffff1667ffffffffffffffff1667ffffffffffffffff1681525050611d5b565b67ffffffffffffffff1686611ea3565b90506119878888888488612633565b6000845114156119ea578673ffffffffffffffffffffffffffffffffffffffff167fb8e138887d0aa13bab447e82de9d5c1777041ecd21ca36ba824ff1e6c07ddda4898884896040516119dd949392919061433b565b60405180910390a2611a41565b8673ffffffffffffffffffffffffffffffffffffffff167fe2babfbac5889a709b63bb7f598b324e08bc5a4fb9ec647fb3cbc9ec07eb87128988848989604051611a38959493929190614387565b60405180910390a25b809250505095945050505050565b3073ffffffffffffffffffffffffffffffffffffffff16611a6e610881565b73ffffffffffffffffffffffffffffffffffffffff1614611b785760005b8451811015611b76573073ffffffffffffffffffffffffffffffffffffffff16858281518110611ae5577f4e487b7100000000000000000000000000000000000000000000000000000000600052603260045260246000fd5b602002602001015173ffffffffffffffffffffffffffffffffffffffff161415611b6557611b64838281518110611b45577f4e487b7100000000000000000000000000000000000000000000000000000000600052603260045260246000fd5b60200260200101518051906020012060026128ac90919063ffffffff16565b5b80611b6f906148ae565b9050611a8c565b505b5050505050565b6000604051806060016040528060278152602001614eda60279139905060005b8551811015611cf757600080878381518110611be4577f4e487b7100000000000000000000000000000000000000000000000000000000600052603260045260246000fd5b602002602001015173ffffffffffffffffffffffffffffffffffffffff16878481518110611c3b577f4e487b7100000000000000000000000000000000000000000000000000000000600052603260045260246000fd5b6020026020010151878581518110611c7c577f4e487b7100000000000000000000000000000000000000000000000000000000600052603260045260246000fd5b6020026020010151604051611c919190613d7d565b60006040518083038185875af1925050503d8060008114611cce576040519150601f19603f3d011682016040523d82523d6000602084013e611cd3565b606091505b5091509150611ce3828286612928565b50505080611cf0906148ae565b9050611b9f565b50505050505050565b3073ffffffffffffffffffffffffffffffffffffffff16611d1f610881565b73ffffffffffffffffffffffffffffffffffffffff1614611d5457611d44600261298f565b611d5357611d5260026129c4565b5b5b5050505050565b600081600001519050919050565b6000611d7f85858585611d7a612071565b611846565b9050949350505050565b60008060046000848152602001908152602001600020905080600201548160010154611db59190614647565b611dc6611dc185610d68565b611768565b1115915050919050565b6000806004600084815260200190815260200160002090508060000154816001015411915050919050565b600033905090565b600080826000015167ffffffffffffffff16149050919050565b600067ffffffffffffffff8016821115611e6c576040517f08c379a0000000000000000000000000000000000000000000000000000000008152600401611e6390614159565b60405180910390fd5b819050919050565b808260000160006101000a81548167ffffffffffffffff021916908367ffffffffffffffff1602179055505050565b60007f000000000000000000000000000000000000000000000000000000000000000073ffffffffffffffffffffffffffffffffffffffff16633a46b1a885856040518363ffffffff1660e01b8152600401611f00929190613dcb565b60206040518083038186803b158015611f1857600080fd5b505afa158015611f2c573d6000803e3d6000fd5b505050506040513d601f19601f82011682018060405250810190611f50919061340c565b90509392505050565b3660008036915091509091565b6000611f718261298f565b15611fa8576040517f3db2a12a00000000000000000000000000000000000000000000000000000000815260040160405180910390fd5b60008260000160009054906101000a9004600f0b905082600101600082600f0b600f0b815260200190815260200160002054915082600101600082600f0b600f0b815260200190815260200160002060009055600181018360000160006101000a8154816fffffffffffffffffffffffffffffffff0219169083600f0b6fffffffffffffffffffffffffffffffff16021790555050919050565b6060612068848484604051806060016040528060298152602001614f0160299139612a45565b90509392505050565b606060405180602001604052806000815250905090565b60007f000000000000000000000000000000000000000000000000000000000000000073ffffffffffffffffffffffffffffffffffffffff163073ffffffffffffffffffffffffffffffffffffffff1614801561210457507f000000000000000000000000000000000000000000000000000000000000000046145b15612131577f0000000000000000000000000000000000000000000000000000000000000000905061219f565b61219c7f00000000000000000000000000000000000000000000000000000000000000007f00000000000000000000000000000000000000000000000000000000000000007f0000000000000000000000000000000000000000000000000000000000000000612b59565b90505b90565b600082826040516020016121b7929190613d94565b60405160208183030381529060405280519060200120905092915050565b6000807f7fffffffffffffffffffffffffffffff5d576e7357a4501ddfe92f46681b20a08360001c11156122105760006003915091506122d9565b601b8560ff16141580156122285750601c8560ff1614155b1561223a5760006004915091506122d9565b60006001878787876040516000815260200160405260405161225f9493929190613f61565b6020604051602081039080840390855afa158015612281573d6000803e3d6000fd5b505050602060405103519050600073ffffffffffffffffffffffffffffffffffffffff168173ffffffffffffffffffffffffffffffffffffffff1614156122d0576000600192509250506122d9565b80600092509250505b94509492505050565b6000600481111561231c577f4e487b7100000000000000000000000000000000000000000000000000000000600052602160045260246000fd5b816004811115612355577f4e487b7100000000000000000000000000000000000000000000000000000000600052602160045260246000fd5b141561236057612630565b6001600481111561239a577f4e487b7100000000000000000000000000000000000000000000000000000000600052602160045260246000fd5b8160048111156123d3577f4e487b7100000000000000000000000000000000000000000000000000000000600052602160045260246000fd5b1415612414576040517f08c379a000000000000000000000000000000000000000000000000000000000815260040161240b90614019565b60405180910390fd5b6002600481111561244e577f4e487b7100000000000000000000000000000000000000000000000000000000600052602160045260246000fd5b816004811115612487577f4e487b7100000000000000000000000000000000000000000000000000000000600052602160045260246000fd5b14156124c8576040517f08c379a00000000000000000000000000000000000000000000000000000000081526004016124bf90614059565b60405180910390fd5b60036004811115612502577f4e487b7100000000000000000000000000000000000000000000000000000000600052602160045260246000fd5b81600481111561253b577f4e487b7100000000000000000000000000000000000000000000000000000000600052602160045260246000fd5b141561257c576040517f08c379a000000000000000000000000000000000000000000000000000000000815260040161257390614099565b60405180910390fd5b6004808111156125b5577f4e487b7100000000000000000000000000000000000000000000000000000000600052602160045260246000fd5b8160048111156125ee577f4e487b7100000000000000000000000000000000000000000000000000000000600052602160045260246000fd5b141561262f576040517f08c379a000000000000000000000000000000000000000000000000000000000815260040161262690614139565b60405180910390fd5b5b50565b60006004600087815260200190815260200160002090508060030160008673ffffffffffffffffffffffffffffffffffffffff1673ffffffffffffffffffffffffffffffffffffffff16815260200190815260200160002060009054906101000a900460ff16156126d9576040517f08c379a00000000000000000000000000000000000000000000000000000000081526004016126d0906140b9565b60405180910390fd5b60018160030160008773ffffffffffffffffffffffffffffffffffffffff1673ffffffffffffffffffffffffffffffffffffffff16815260200190815260200160002060006101000a81548160ff0219169083151502179055506000600281111561276d577f4e487b7100000000000000000000000000000000000000000000000000000000600052602160045260246000fd5b60ff168460ff16141561279a578281600001600082825461278e9190614647565b925050819055506128a4565b600160028111156127d4577f4e487b7100000000000000000000000000000000000000000000000000000000600052602160045260246000fd5b60ff168460ff16141561280157828160010160008282546127f59190614647565b925050819055506128a3565b60028081111561283a577f4e487b7100000000000000000000000000000000000000000000000000000000600052602160045260246000fd5b60ff168460ff161415612867578281600201600082825461285b9190614647565b925050819055506128a2565b6040517f08c379a0000000000000000000000000000000000000000000000000000000008152600401612899906141b9565b60405180910390fd5b5b5b505050505050565b60008260000160109054906101000a9004600f0b90508183600101600083600f0b600f0b815260200190815260200160002081905550600181018360000160106101000a8154816fffffffffffffffffffffffffffffffff0219169083600f0b6fffffffffffffffffffffffffffffffff160217905550505050565b6060831561293857829050612988565b60008351111561294b5782518084602001fd5b816040517f08c379a000000000000000000000000000000000000000000000000000000000815260040161297f9190613ff7565b60405180910390fd5b9392505050565b60008160000160009054906101000a9004600f0b600f0b8260000160109054906101000a9004600f0b600f0b13159050919050565b60008160000160006101000a8154816fffffffffffffffffffffffffffffffff0219169083600f0b6fffffffffffffffffffffffffffffffff16021790555060008160000160106101000a8154816fffffffffffffffffffffffffffffffff0219169083600f0b6fffffffffffffffffffffffffffffffff16021790555050565b606082471015612a8a576040517f08c379a0000000000000000000000000000000000000000000000000000000008152600401612a81906140d9565b60405180910390fd5b612a9385612b93565b612ad2576040517f08c379a0000000000000000000000000000000000000000000000000000000008152600401612ac9906141f9565b60405180910390fd5b6000808673ffffffffffffffffffffffffffffffffffffffff168587604051612afb9190613d7d565b60006040518083038185875af1925050503d8060008114612b38576040519150601f19603f3d011682016040523d82523d6000602084013e612b3d565b606091505b5091509150612b4d828286612928565b92505050949350505050565b60008383834630604051602001612b74959493929190613e84565b6040516020818303038152906040528051906020012090509392505050565b6000808273ffffffffffffffffffffffffffffffffffffffff163b119050919050565b6000612bc9612bc48461440d565b6143e8565b90508083825260208201905082856020860282011115612be857600080fd5b60005b85811015612c185781612bfe8882612d90565b845260208401935060208301925050600181019050612beb565b5050509392505050565b6000612c35612c3084614439565b6143e8565b90508083825260208201905082856020860282011115612c5457600080fd5b60005b85811015612c9e57813567ffffffffffffffff811115612c7657600080fd5b808601612c838982612e97565b85526020850194506020840193505050600181019050612c57565b5050509392505050565b6000612cbb612cb684614465565b6143e8565b90508083825260208201905082856020860282011115612cda57600080fd5b60005b85811015612d0a5781612cf08882612f35565b845260208401935060208301925050600181019050612cdd565b5050509392505050565b6000612d27612d2284614491565b6143e8565b905082815260208101848484011115612d3f57600080fd5b612d4a848285614809565b509392505050565b6000612d65612d60846144c2565b6143e8565b905082815260208101848484011115612d7d57600080fd5b612d88848285614809565b509392505050565b600081359050612d9f81614e66565b92915050565b600082601f830112612db657600080fd5b8135612dc6848260208601612bb6565b91505092915050565b600082601f830112612de057600080fd5b8135612df0848260208601612c22565b91505092915050565b600082601f830112612e0a57600080fd5b8135612e1a848260208601612ca8565b91505092915050565b600081359050612e3281614e7d565b92915050565b600081359050612e4781614e94565b92915050565b60008083601f840112612e5f57600080fd5b8235905067ffffffffffffffff811115612e7857600080fd5b602083019150836001820283011115612e9057600080fd5b9250929050565b600082601f830112612ea857600080fd5b8135612eb8848260208601612d14565b91505092915050565b60008083601f840112612ed357600080fd5b8235905067ffffffffffffffff811115612eec57600080fd5b602083019150836001820283011115612f0457600080fd5b9250929050565b600082601f830112612f1c57600080fd5b8135612f2c848260208601612d52565b91505092915050565b600081359050612f4481614eab565b92915050565b600081519050612f5981614eab565b92915050565b600081359050612f6e81614ec2565b92915050565b600080600080600060a08688031215612f8c57600080fd5b6000612f9a88828901612d90565b9550506020612fab88828901612d90565b945050604086013567ffffffffffffffff811115612fc857600080fd5b612fd488828901612df9565b935050606086013567ffffffffffffffff811115612ff157600080fd5b612ffd88828901612df9565b925050608086013567ffffffffffffffff81111561301a57600080fd5b61302688828901612e97565b9150509295509295909350565b6000806000806080858703121561304957600080fd5b600061305787828801612d90565b945050602061306887828801612d90565b935050604061307987828801612f35565b925050606085013567ffffffffffffffff81111561309657600080fd5b6130a287828801612e97565b91505092959194509250565b600080600080600060a086880312156130c657600080fd5b60006130d488828901612d90565b95505060206130e588828901612d90565b94505060406130f688828901612f35565b935050606061310788828901612f35565b925050608086013567ffffffffffffffff81111561312457600080fd5b61313088828901612e97565b9150509295509295909350565b6000806040838503121561315057600080fd5b600061315e85828601612d90565b925050602061316f85828601612f35565b9150509250929050565b6000806000806060858703121561318f57600080fd5b600061319d87828801612d90565b94505060206131ae87828801612f35565b935050604085013567ffffffffffffffff8111156131cb57600080fd5b6131d787828801612e4d565b925092505092959194509250565b6000806000606084860312156131fa57600080fd5b600061320886828701612d90565b935050602061321986828701612f35565b925050604084013567ffffffffffffffff81111561323657600080fd5b61324286828701612e97565b9150509250925092565b6000806000806080858703121561326257600080fd5b600085013567ffffffffffffffff81111561327c57600080fd5b61328887828801612da5565b945050602085013567ffffffffffffffff8111156132a557600080fd5b6132b187828801612df9565b935050604085013567ffffffffffffffff8111156132ce57600080fd5b6132da87828801612dcf565b92505060606132eb87828801612e23565b91505092959194509250565b6000806000806080858703121561330d57600080fd5b600085013567ffffffffffffffff81111561332757600080fd5b61333387828801612da5565b945050602085013567ffffffffffffffff81111561335057600080fd5b61335c87828801612df9565b935050604085013567ffffffffffffffff81111561337957600080fd5b61338587828801612dcf565b925050606085013567ffffffffffffffff8111156133a257600080fd5b6133ae87828801612f0b565b91505092959194509250565b6000602082840312156133cc57600080fd5b60006133da84828501612e38565b91505092915050565b6000602082840312156133f557600080fd5b600061340384828501612f35565b91505092915050565b60006020828403121561341e57600080fd5b600061342c84828501612f4a565b91505092915050565b6000806040838503121561344857600080fd5b600061345685828601612f35565b925050602061346785828601612d90565b9150509250929050565b6000806040838503121561348457600080fd5b600061349285828601612f35565b92505060206134a385828601612f5f565b9150509250929050565b600080600080606085870312156134c357600080fd5b60006134d187828801612f35565b94505060206134e287828801612f5f565b935050604085013567ffffffffffffffff8111156134ff57600080fd5b61350b87828801612ec1565b925092505092959194509250565b60008060008060006080868803121561353157600080fd5b600061353f88828901612f35565b955050602061355088828901612f5f565b945050604086013567ffffffffffffffff81111561356d57600080fd5b61357988828901612ec1565b9350935050606086013567ffffffffffffffff81111561359857600080fd5b6135a488828901612e97565b9150509295509295909350565b60008060008060008060008060e0898b0312156135cd57600080fd5b60006135db8b828c01612f35565b98505060206135ec8b828c01612f5f565b975050604089013567ffffffffffffffff81111561360957600080fd5b6136158b828c01612ec1565b9650965050606089013567ffffffffffffffff81111561363457600080fd5b6136408b828c01612e97565b94505060806136518b828c01612f5f565b93505060a06136628b828c01612e23565b92505060c06136738b828c01612e23565b9150509295985092959890939650565b600080600080600060a0868803121561369b57600080fd5b60006136a988828901612f35565b95505060206136ba88828901612f5f565b94505060406136cb88828901612f5f565b93505060606136dc88828901612e23565b92505060806136ed88828901612e23565b9150509295509295909350565b60006137068383613752565b60208301905092915050565b600061371e838361397f565b905092915050565b60006137328383613a40565b905092915050565b60006137468383613d28565b60208301905092915050565b61375b8161470f565b82525050565b61376a8161470f565b82525050565b600061377b82614533565b61378581856145a9565b9350613790836144f3565b8060005b838110156137c15781516137a888826136fa565b97506137b383614575565b925050600181019050613794565b5085935050505092915050565b60006137d98261453e565b6137e381856145ba565b9350836020820285016137f585614503565b8060005b8581101561383157848403895281516138128582613712565b945061381d83614582565b925060208a019950506001810190506137f9565b50829750879550505050505092915050565b600061384e82614549565b61385881856145cb565b93508360208202850161386a85614513565b8060005b858110156138a657848403895281516138878582613726565b94506138928361458f565b925060208a0199505060018101905061386e565b50829750879550505050505092915050565b60006138c382614554565b6138cd81856145dc565b93506138d883614523565b8060005b838110156139095781516138f0888261373a565b97506138fb8361459c565b9250506001810190506138dc565b5085935050505092915050565b61391f81614721565b82525050565b61392e8161472d565b82525050565b6139456139408261472d565b6148f7565b82525050565b61395481614737565b82525050565b6000613966838561460f565b9350613973838584614809565b82840190509392505050565b600061398a8261455f565b61399481856145ed565b93506139a4818560208601614818565b6139ad816149bd565b840191505092915050565b60006139c38261455f565b6139cd81856145fe565b93506139dd818560208601614818565b6139e6816149bd565b840191505092915050565b60006139fc8261455f565b613a06818561460f565b9350613a16818560208601614818565b80840191505092915050565b613a2b816147c1565b82525050565b613a3a816147e5565b82525050565b6000613a4b8261456a565b613a55818561461a565b9350613a65818560208601614818565b613a6e816149bd565b840191505092915050565b6000613a848261456a565b613a8e818561462b565b9350613a9e818560208601614818565b613aa7816149bd565b840191505092915050565b6000613abf60188361462b565b9150613aca826149ce565b602082019050919050565b6000613ae260188361462b565b9150613aed826149f7565b602082019050919050565b6000613b05601f8361462b565b9150613b1082614a20565b602082019050919050565b6000613b2860028361463c565b9150613b3382614a49565b600282019050919050565b6000613b4b60218361462b565b9150613b5682614a72565b604082019050919050565b6000613b6e60228361462b565b9150613b7982614ac1565b604082019050919050565b6000613b9160278361462b565b9150613b9c82614b10565b604082019050919050565b6000613bb460268361462b565b9150613bbf82614b5f565b604082019050919050565b6000613bd760238361462b565b9150613be282614bae565b604082019050919050565b6000613bfa60188361462b565b9150613c0582614bfd565b602082019050919050565b6000613c1d60228361462b565b9150613c2882614c26565b604082019050919050565b6000613c4060268361462b565b9150613c4b82614c75565b604082019050919050565b6000613c6360218361462b565b9150613c6e82614cc4565b604082019050919050565b6000613c86601d8361462b565b9150613c9182614d13565b602082019050919050565b6000613ca960358361462b565b9150613cb482614d3c565b604082019050919050565b6000613ccc60218361462b565b9150613cd782614d8b565b604082019050919050565b6000613cef601d8361462b565b9150613cfa82614dda565b602082019050919050565b6000613d1260318361462b565b9150613d1d82614e03565b604082019050919050565b613d3181614796565b82525050565b613d4081614796565b82525050565b613d4f816147f7565b82525050565b613d5e816147b4565b82525050565b6000613d7182848661395a565b91508190509392505050565b6000613d8982846139f1565b915081905092915050565b6000613d9f82613b1b565b9150613dab8285613934565b602082019150613dbb8284613934565b6020820191508190509392505050565b6000604082019050613de06000830185613761565b613ded6020830184613d37565b9392505050565b60006080820190508181036000830152613e0e8187613770565b90508181036020830152613e2281866138b8565b90508181036040830152613e3681856137ce565b9050613e456060830184613925565b95945050505050565b6000602082019050613e636000830184613916565b92915050565b6000602082019050613e7e6000830184613925565b92915050565b600060a082019050613e996000830188613925565b613ea66020830187613925565b613eb36040830186613925565b613ec06060830185613d37565b613ecd6080830184613761565b9695505050505050565b6000606082019050613eec6000830186613925565b613ef96020830185613d37565b613f066040830184613d55565b949350505050565b600060a082019050613f236000830188613925565b613f306020830187613d37565b613f3d6040830186613d55565b613f4a6060830185613925565b613f576080830184613925565b9695505050505050565b6000608082019050613f766000830187613925565b613f836020830186613d55565b613f906040830185613925565b613f9d6060830184613925565b95945050505050565b6000602082019050613fbb600083018461394b565b92915050565b6000602082019050613fd66000830184613a22565b92915050565b6000602082019050613ff16000830184613a31565b92915050565b600060208201905081810360008301526140118184613a79565b905092915050565b6000602082019050818103600083015261403281613ab2565b9050919050565b6000602082019050818103600083015261405281613ad5565b9050919050565b6000602082019050818103600083015261407281613af8565b9050919050565b6000602082019050818103600083015261409281613b3e565b9050919050565b600060208201905081810360008301526140b281613b61565b9050919050565b600060208201905081810360008301526140d281613b84565b9050919050565b600060208201905081810360008301526140f281613ba7565b9050919050565b6000602082019050818103600083015261411281613bca565b9050919050565b6000602082019050818103600083015261413281613bed565b9050919050565b6000602082019050818103600083015261415281613c10565b9050919050565b6000602082019050818103600083015261417281613c33565b9050919050565b6000602082019050818103600083015261419281613c56565b9050919050565b600060208201905081810360008301526141b281613c79565b9050919050565b600060208201905081810360008301526141d281613c9c565b9050919050565b600060208201905081810360008301526141f281613cbf565b9050919050565b6000602082019050818103600083015261421281613ce2565b9050919050565b6000602082019050818103600083015261423281613d05565b9050919050565b600060208201905061424e6000830184613d37565b92915050565b60006101208201905061426a600083018c613d37565b614277602083018b613761565b8181036040830152614289818a613770565b9050818103606083015261429d81896138b8565b905081810360808301526142b18188613843565b905081810360a08301526142c581876137ce565b90506142d460c0830186613d46565b6142e160e0830185613d46565b8181036101008301526142f48184613a79565b90509a9950505050505050505050565b60006060820190506143196000830186613d37565b6143266020830185613d37565b6143336040830184613d37565b949350505050565b60006080820190506143506000830187613d37565b61435d6020830186613d55565b61436a6040830185613d37565b818103606083015261437c8184613a79565b905095945050505050565b600060a08201905061439c6000830188613d37565b6143a96020830187613d55565b6143b66040830186613d37565b81810360608301526143c88185613a79565b905081810360808301526143dc81846139b8565b90509695505050505050565b60006143f2614403565b90506143fe828261487d565b919050565b6000604051905090565b600067ffffffffffffffff8211156144285761442761498e565b5b602082029050602081019050919050565b600067ffffffffffffffff8211156144545761445361498e565b5b602082029050602081019050919050565b600067ffffffffffffffff8211156144805761447f61498e565b5b602082029050602081019050919050565b600067ffffffffffffffff8211156144ac576144ab61498e565b5b6144b5826149bd565b9050602081019050919050565b600067ffffffffffffffff8211156144dd576144dc61498e565b5b6144e6826149bd565b9050602081019050919050565b6000819050602082019050919050565b6000819050602082019050919050565b6000819050602082019050919050565b6000819050602082019050919050565b600081519050919050565b600081519050919050565b600081519050919050565b600081519050919050565b600081519050919050565b600081519050919050565b6000602082019050919050565b6000602082019050919050565b6000602082019050919050565b6000602082019050919050565b600082825260208201905092915050565b600082825260208201905092915050565b600082825260208201905092915050565b600082825260208201905092915050565b600082825260208201905092915050565b600082825260208201905092915050565b600081905092915050565b600082825260208201905092915050565b600082825260208201905092915050565b600081905092915050565b600061465282614796565b915061465d83614796565b9250827fffffffffffffffffffffffffffffffffffffffffffffffffffffffffffffffff0382111561469257614691614901565b5b828201905092915050565b60006146a8826147a0565b91506146b3836147a0565b92508267ffffffffffffffff038211156146d0576146cf614901565b5b828201905092915050565b60006146e682614796565b91506146f183614796565b92508282101561470457614703614901565b5b828203905092915050565b600061471a82614776565b9050919050565b60008115159050919050565b6000819050919050565b60007fffffffff0000000000000000000000000000000000000000000000000000000082169050919050565b600081905061477182614e52565b919050565b600073ffffffffffffffffffffffffffffffffffffffff82169050919050565b6000819050919050565b600067ffffffffffffffff82169050919050565b600060ff82169050919050565b60006147cc826147d3565b9050919050565b60006147de82614776565b9050919050565b60006147f082614763565b9050919050565b6000614802826147a0565b9050919050565b82818337600083830152505050565b60005b8381101561483657808201518184015260208101905061481b565b83811115614845576000848401525b50505050565b6000600282049050600182168061486357607f821691505b602082108114156148775761487661495f565b5b50919050565b614886826149bd565b810181811067ffffffffffffffff821117156148a5576148a461498e565b5b80604052505050565b60006148b982614796565b91507fffffffffffffffffffffffffffffffffffffffffffffffffffffffffffffffff8214156148ec576148eb614901565b5b600182019050919050565b6000819050919050565b7f4e487b7100000000000000000000000000000000000000000000000000000000600052601160045260246000fd5b7f4e487b7100000000000000000000000000000000000000000000000000000000600052602160045260246000fd5b7f4e487b7100000000000000000000000000000000000000000000000000000000600052602260045260246000fd5b7f4e487b7100000000000000000000000000000000000000000000000000000000600052604160045260246000fd5b6000601f19601f8301169050919050565b7f45434453413a20696e76616c6964207369676e61747572650000000000000000600082015250565b7f476f7665726e6f723a206f6e6c79476f7665726e616e63650000000000000000600082015250565b7f45434453413a20696e76616c6964207369676e6174757265206c656e67746800600082015250565b7f1901000000000000000000000000000000000000000000000000000000000000600082015250565b7f476f7665726e6f723a20696e76616c69642070726f706f73616c206c656e677460008201527f6800000000000000000000000000000000000000000000000000000000000000602082015250565b7f45434453413a20696e76616c6964207369676e6174757265202773272076616c60008201527f7565000000000000000000000000000000000000000000000000000000000000602082015250565b7f476f7665726e6f72566f74696e6753696d706c653a20766f746520616c72656160008201527f6479206361737400000000000000000000000000000000000000000000000000602082015250565b7f416464726573733a20696e73756666696369656e742062616c616e636520666f60008201527f722063616c6c0000000000000000000000000000000000000000000000000000602082015250565b7f476f7665726e6f723a20766f7465206e6f742063757272656e746c792061637460008201527f6976650000000000000000000000000000000000000000000000000000000000602082015250565b7f476f7665726e6f723a20656d7074792070726f706f73616c0000000000000000600082015250565b7f45434453413a20696e76616c6964207369676e6174757265202776272076616c60008201527f7565000000000000000000000000000000000000000000000000000000000000602082015250565b7f53616665436173743a2076616c756520646f65736e27742066697420696e203660008201527f3420626974730000000000000000000000000000000000000000000000000000602082015250565b7f476f7665726e6f723a2070726f706f73616c206e6f742073756363657373667560008201527f6c00000000000000000000000000000000000000000000000000000000000000602082015250565b7f476f7665726e6f723a20756e6b6e6f776e2070726f706f73616c206964000000600082015250565b7f476f7665726e6f72566f74696e6753696d706c653a20696e76616c696420766160008201527f6c756520666f7220656e756d20566f7465547970650000000000000000000000602082015250565b7f476f7665726e6f723a2070726f706f73616c20616c726561647920657869737460008201527f7300000000000000000000000000000000000000000000000000000000000000602082015250565b7f416464726573733a2063616c6c20746f206e6f6e2d636f6e7472616374000000600082015250565b7f476f7665726e6f723a2070726f706f73657220766f7465732062656c6f77207060008201527f726f706f73616c207468726573686f6c64000000000000000000000000000000602082015250565b60088110614e6357614e62614930565b5b50565b614e6f8161470f565b8114614e7a57600080fd5b50565b614e868161472d565b8114614e9157600080fd5b50565b614e9d81614737565b8114614ea857600080fd5b50565b614eb481614796565b8114614ebf57600080fd5b50565b614ecb816147b4565b8114614ed657600080fd5b5056fe476f7665726e6f723a2063616c6c20726576657274656420776974686f7574206d657373616765416464726573733a206c6f772d6c6576656c2063616c6c20776974682076616c7565206661696c6564a2646970667358221220295021a06ee4d7cd031244750f87abf5aa1e02e199b2ca3cd23321587175c1a464736f6c63430008040033",
  "linkReferences": {},
  "deployedLinkReferences": {}
}